{
  "_format": "hh-sol-artifact-1",
  "contractName": "TesouroDireto",
  "sourceName": "contracts/TesouroDireto.sol",
  "abi": [
    {
      "inputs": [
        {
          "internalType": "address",
          "name": "_RealTokenizado",
          "type": "address"
        },
        {
          "internalType": "address",
          "name": "_TPFT",
          "type": "address"
        },
        {
          "internalType": "address",
          "name": "_TPFtManager",
          "type": "address"
        }
      ],
      "stateMutability": "nonpayable",
      "type": "constructor"
    },
    {
      "inputs": [],
      "name": "AccessControlBadConfirmation",
      "type": "error"
    },
    {
      "inputs": [
        {
          "internalType": "address",
          "name": "account",
          "type": "address"
        },
        {
          "internalType": "bytes32",
          "name": "neededRole",
          "type": "bytes32"
        }
      ],
      "name": "AccessControlUnauthorizedAccount",
      "type": "error"
    },
    {
      "inputs": [
        {
          "internalType": "address",
          "name": "sender",
          "type": "address"
        },
        {
          "internalType": "uint256",
          "name": "balance",
          "type": "uint256"
        },
        {
          "internalType": "uint256",
          "name": "needed",
          "type": "uint256"
        },
        {
          "internalType": "uint256",
          "name": "tokenId",
          "type": "uint256"
        }
      ],
      "name": "ERC1155InsufficientBalance",
      "type": "error"
    },
    {
      "inputs": [
        {
          "internalType": "address",
          "name": "approver",
          "type": "address"
        }
      ],
      "name": "ERC1155InvalidApprover",
      "type": "error"
    },
    {
      "inputs": [
        {
          "internalType": "uint256",
          "name": "idsLength",
          "type": "uint256"
        },
        {
          "internalType": "uint256",
          "name": "valuesLength",
          "type": "uint256"
        }
      ],
      "name": "ERC1155InvalidArrayLength",
      "type": "error"
    },
    {
      "inputs": [
        {
          "internalType": "address",
          "name": "operator",
          "type": "address"
        }
      ],
      "name": "ERC1155InvalidOperator",
      "type": "error"
    },
    {
      "inputs": [
        {
          "internalType": "address",
          "name": "receiver",
          "type": "address"
        }
      ],
      "name": "ERC1155InvalidReceiver",
      "type": "error"
    },
    {
      "inputs": [
        {
          "internalType": "address",
          "name": "sender",
          "type": "address"
        }
      ],
      "name": "ERC1155InvalidSender",
      "type": "error"
    },
    {
      "inputs": [
        {
          "internalType": "address",
          "name": "operator",
          "type": "address"
        },
        {
          "internalType": "address",
          "name": "owner",
          "type": "address"
        }
      ],
      "name": "ERC1155MissingApprovalForAll",
      "type": "error"
    },
    {
      "anonymous": false,
      "inputs": [
        {
          "indexed": true,
          "internalType": "address",
          "name": "account",
          "type": "address"
        },
        {
          "indexed": true,
          "internalType": "address",
          "name": "operator",
          "type": "address"
        },
        {
          "indexed": false,
          "internalType": "bool",
          "name": "approved",
          "type": "bool"
        }
      ],
      "name": "ApprovalForAll",
      "type": "event"
    },
    {
      "anonymous": false,
      "inputs": [
        {
          "indexed": false,
          "internalType": "address",
          "name": "sender",
          "type": "address"
        },
        {
          "indexed": false,
          "internalType": "uint256",
          "name": "poolId",
          "type": "uint256"
        },
        {
          "indexed": false,
          "internalType": "uint256",
          "name": "amountTokenA",
          "type": "uint256"
        },
        {
          "indexed": false,
          "internalType": "uint256",
          "name": "amountRealTokenizado",
          "type": "uint256"
        },
        {
          "indexed": false,
          "internalType": "uint256",
          "name": "amountLiquidity",
          "type": "uint256"
        }
      ],
      "name": "LiquidityAdded",
      "type": "event"
    },
    {
      "anonymous": false,
      "inputs": [
        {
          "indexed": true,
          "internalType": "bytes32",
          "name": "role",
          "type": "bytes32"
        },
        {
          "indexed": true,
          "internalType": "bytes32",
          "name": "previousAdminRole",
          "type": "bytes32"
        },
        {
          "indexed": true,
          "internalType": "bytes32",
          "name": "newAdminRole",
          "type": "bytes32"
        }
      ],
      "name": "RoleAdminChanged",
      "type": "event"
    },
    {
      "anonymous": false,
      "inputs": [
        {
          "indexed": true,
          "internalType": "bytes32",
          "name": "role",
          "type": "bytes32"
        },
        {
          "indexed": true,
          "internalType": "address",
          "name": "account",
          "type": "address"
        },
        {
          "indexed": true,
          "internalType": "address",
          "name": "sender",
          "type": "address"
        }
      ],
      "name": "RoleGranted",
      "type": "event"
    },
    {
      "anonymous": false,
      "inputs": [
        {
          "indexed": true,
          "internalType": "bytes32",
          "name": "role",
          "type": "bytes32"
        },
        {
          "indexed": true,
          "internalType": "address",
          "name": "account",
          "type": "address"
        },
        {
          "indexed": true,
          "internalType": "address",
          "name": "sender",
          "type": "address"
        }
      ],
      "name": "RoleRevoked",
      "type": "event"
    },
    {
      "anonymous": false,
      "inputs": [
        {
          "indexed": true,
          "internalType": "address",
          "name": "operator",
          "type": "address"
        },
        {
          "indexed": true,
          "internalType": "address",
          "name": "from",
          "type": "address"
        },
        {
          "indexed": true,
          "internalType": "address",
          "name": "to",
          "type": "address"
        },
        {
          "indexed": false,
          "internalType": "uint256[]",
          "name": "ids",
          "type": "uint256[]"
        },
        {
          "indexed": false,
          "internalType": "uint256[]",
          "name": "values",
          "type": "uint256[]"
        }
      ],
      "name": "TransferBatch",
      "type": "event"
    },
    {
      "anonymous": false,
      "inputs": [
        {
          "indexed": true,
          "internalType": "address",
          "name": "operator",
          "type": "address"
        },
        {
          "indexed": true,
          "internalType": "address",
          "name": "from",
          "type": "address"
        },
        {
          "indexed": true,
          "internalType": "address",
          "name": "to",
          "type": "address"
        },
        {
          "indexed": false,
          "internalType": "uint256",
          "name": "id",
          "type": "uint256"
        },
        {
          "indexed": false,
          "internalType": "uint256",
          "name": "value",
          "type": "uint256"
        }
      ],
      "name": "TransferSingle",
      "type": "event"
    },
    {
      "anonymous": false,
      "inputs": [
        {
          "indexed": false,
          "internalType": "string",
          "name": "value",
          "type": "string"
        },
        {
          "indexed": true,
          "internalType": "uint256",
          "name": "id",
          "type": "uint256"
        }
      ],
      "name": "URI",
      "type": "event"
    },
    {
      "anonymous": false,
      "inputs": [
        {
          "indexed": true,
          "internalType": "uint256",
          "name": "id",
          "type": "uint256"
        },
        {
          "components": [
            {
              "internalType": "uint256",
              "name": "tokenA",
              "type": "uint256"
            },
            {
              "internalType": "uint256",
              "name": "totalSupplyLP",
              "type": "uint256"
            },
            {
              "internalType": "uint256",
              "name": "reserveA",
              "type": "uint256"
            },
            {
              "internalType": "uint256",
              "name": "reserveReal",
              "type": "uint256"
            },
            {
              "internalType": "uint256",
              "name": "priceA",
              "type": "uint256"
            },
            {
              "internalType": "uint256",
              "name": "swapFee",
              "type": "uint256"
            }
          ],
          "indexed": false,
          "internalType": "struct ITesouroDireto.LiquidityPool",
          "name": "pool",
          "type": "tuple"
        }
      ],
      "name": "newLiquidityPool",
      "type": "event"
    },
    {
      "anonymous": false,
      "inputs": [
        {
          "indexed": false,
          "internalType": "address",
          "name": "sender",
          "type": "address"
        },
        {
          "indexed": false,
          "internalType": "uint256",
          "name": "id",
          "type": "uint256"
        },
        {
          "indexed": false,
          "internalType": "uint256",
          "name": "amountIn",
          "type": "uint256"
        },
        {
          "indexed": false,
          "internalType": "uint256",
          "name": "amountOut",
          "type": "uint256"
        },
        {
          "indexed": false,
          "internalType": "bool",
          "name": "isTokenAToRealDigital",
          "type": "bool"
        },
        {
          "indexed": false,
          "internalType": "uint256",
          "name": "newPrice",
          "type": "uint256"
        }
      ],
      "name": "swapped",
      "type": "event"
    },
    {
      "inputs": [],
      "name": "CREATOR_LIQUIIDITY_POOL_ROLE",
      "outputs": [
        {
          "internalType": "bytes32",
          "name": "",
          "type": "bytes32"
        }
      ],
      "stateMutability": "view",
      "type": "function"
    },
    {
      "inputs": [],
      "name": "DEFAULT_ADMIN_ROLE",
      "outputs": [
        {
          "internalType": "bytes32",
          "name": "",
          "type": "bytes32"
        }
      ],
      "stateMutability": "view",
      "type": "function"
    },
    {
      "inputs": [
        {
          "internalType": "uint256",
          "name": "liquidityPoolID",
          "type": "uint256"
        },
        {
          "internalType": "uint256",
          "name": "amountA",
          "type": "uint256"
        }
      ],
      "name": "addLiquidtyPool",
      "outputs": [],
      "stateMutability": "nonpayable",
      "type": "function"
    },
    {
      "inputs": [
        {
          "internalType": "address",
          "name": "account",
          "type": "address"
        },
        {
          "internalType": "uint256",
          "name": "id",
          "type": "uint256"
        }
      ],
      "name": "balanceOf",
      "outputs": [
        {
          "internalType": "uint256",
          "name": "",
          "type": "uint256"
        }
      ],
      "stateMutability": "view",
      "type": "function"
    },
    {
      "inputs": [
        {
          "internalType": "address[]",
          "name": "accounts",
          "type": "address[]"
        },
        {
          "internalType": "uint256[]",
          "name": "ids",
          "type": "uint256[]"
        }
      ],
      "name": "balanceOfBatch",
      "outputs": [
        {
          "internalType": "uint256[]",
          "name": "",
          "type": "uint256[]"
        }
      ],
      "stateMutability": "view",
      "type": "function"
    },
    {
      "inputs": [
        {
          "internalType": "uint256",
          "name": "realTokenizadoAmount",
          "type": "uint256"
        },
        {
          "components": [
            {
              "internalType": "uint256",
              "name": "tokenA",
              "type": "uint256"
            },
            {
              "internalType": "uint256",
              "name": "totalSupplyLP",
              "type": "uint256"
            },
            {
              "internalType": "uint256",
              "name": "reserveA",
              "type": "uint256"
            },
            {
              "internalType": "uint256",
              "name": "reserveReal",
              "type": "uint256"
            },
            {
              "internalType": "uint256",
              "name": "priceA",
              "type": "uint256"
            },
            {
              "internalType": "uint256",
              "name": "swapFee",
              "type": "uint256"
            }
          ],
          "internalType": "struct ITesouroDireto.LiquidityPool",
          "name": "pool",
          "type": "tuple"
        }
      ],
      "name": "calculateLiquidityTokens",
      "outputs": [
        {
          "internalType": "uint256",
          "name": "",
          "type": "uint256"
        }
      ],
      "stateMutability": "pure",
      "type": "function"
    },
    {
      "inputs": [
        {
          "internalType": "uint256",
          "name": "tokenA",
          "type": "uint256"
        },
        {
          "internalType": "uint256",
          "name": "initialPriceA",
          "type": "uint256"
        },
        {
          "internalType": "uint256",
          "name": "swapFee",
          "type": "uint256"
        }
      ],
      "name": "createLiquidtyPool",
      "outputs": [],
      "stateMutability": "nonpayable",
      "type": "function"
    },
    {
      "inputs": [
        {
          "internalType": "uint256",
          "name": "poolId",
          "type": "uint256"
        }
      ],
      "name": "getPool",
      "outputs": [
        {
          "components": [
            {
              "internalType": "uint256",
              "name": "tokenA",
              "type": "uint256"
            },
            {
              "internalType": "uint256",
              "name": "totalSupplyLP",
              "type": "uint256"
            },
            {
              "internalType": "uint256",
              "name": "reserveA",
              "type": "uint256"
            },
            {
              "internalType": "uint256",
              "name": "reserveReal",
              "type": "uint256"
            },
            {
              "internalType": "uint256",
              "name": "priceA",
              "type": "uint256"
            },
            {
              "internalType": "uint256",
              "name": "swapFee",
              "type": "uint256"
            }
          ],
          "internalType": "struct ITesouroDireto.LiquidityPool",
          "name": "",
          "type": "tuple"
        }
      ],
      "stateMutability": "view",
      "type": "function"
    },
    {
      "inputs": [
        {
          "internalType": "bytes32",
          "name": "role",
          "type": "bytes32"
        }
      ],
      "name": "getRoleAdmin",
      "outputs": [
        {
          "internalType": "bytes32",
          "name": "",
          "type": "bytes32"
        }
      ],
      "stateMutability": "view",
      "type": "function"
    },
    {
      "inputs": [
        {
          "internalType": "bytes32",
          "name": "role",
          "type": "bytes32"
        },
        {
          "internalType": "address",
          "name": "account",
          "type": "address"
        }
      ],
      "name": "grantRole",
      "outputs": [],
      "stateMutability": "nonpayable",
      "type": "function"
    },
    {
      "inputs": [
        {
          "internalType": "bytes32",
          "name": "role",
          "type": "bytes32"
        },
        {
          "internalType": "address",
          "name": "account",
          "type": "address"
        }
      ],
      "name": "hasRole",
      "outputs": [
        {
          "internalType": "bool",
          "name": "",
          "type": "bool"
        }
      ],
      "stateMutability": "view",
      "type": "function"
    },
    {
      "inputs": [
        {
          "internalType": "address",
          "name": "account",
          "type": "address"
        },
        {
          "internalType": "address",
          "name": "operator",
          "type": "address"
        }
      ],
      "name": "isApprovedForAll",
      "outputs": [
        {
          "internalType": "bool",
          "name": "",
          "type": "bool"
        }
      ],
      "stateMutability": "view",
      "type": "function"
    },
    {
      "inputs": [
        {
          "internalType": "uint256",
          "name": "",
          "type": "uint256"
        }
      ],
      "name": "liquidityPools",
      "outputs": [
        {
          "internalType": "uint256",
          "name": "tokenA",
          "type": "uint256"
        },
        {
          "internalType": "uint256",
          "name": "totalSupplyLP",
          "type": "uint256"
        },
        {
          "internalType": "uint256",
          "name": "reserveA",
          "type": "uint256"
        },
        {
          "internalType": "uint256",
          "name": "reserveReal",
          "type": "uint256"
        },
        {
          "internalType": "uint256",
          "name": "priceA",
          "type": "uint256"
        },
        {
          "internalType": "uint256",
          "name": "swapFee",
          "type": "uint256"
        }
      ],
      "stateMutability": "view",
      "type": "function"
    },
    {
      "inputs": [
        {
          "internalType": "bytes32",
          "name": "role",
          "type": "bytes32"
        },
        {
          "internalType": "address",
          "name": "callerConfirmation",
          "type": "address"
        }
      ],
      "name": "renounceRole",
      "outputs": [],
      "stateMutability": "nonpayable",
      "type": "function"
    },
    {
      "inputs": [
        {
          "internalType": "bytes32",
          "name": "role",
          "type": "bytes32"
        },
        {
          "internalType": "address",
          "name": "account",
          "type": "address"
        }
      ],
      "name": "revokeRole",
      "outputs": [],
      "stateMutability": "nonpayable",
      "type": "function"
    },
    {
      "inputs": [
        {
          "internalType": "address",
          "name": "from",
          "type": "address"
        },
        {
          "internalType": "address",
          "name": "to",
          "type": "address"
        },
        {
          "internalType": "uint256[]",
          "name": "ids",
          "type": "uint256[]"
        },
        {
          "internalType": "uint256[]",
          "name": "values",
          "type": "uint256[]"
        },
        {
          "internalType": "bytes",
          "name": "data",
          "type": "bytes"
        }
      ],
      "name": "safeBatchTransferFrom",
      "outputs": [],
      "stateMutability": "nonpayable",
      "type": "function"
    },
    {
      "inputs": [
        {
          "internalType": "address",
          "name": "from",
          "type": "address"
        },
        {
          "internalType": "address",
          "name": "to",
          "type": "address"
        },
        {
          "internalType": "uint256",
          "name": "id",
          "type": "uint256"
        },
        {
          "internalType": "uint256",
          "name": "value",
          "type": "uint256"
        },
        {
          "internalType": "bytes",
          "name": "data",
          "type": "bytes"
        }
      ],
      "name": "safeTransferFrom",
      "outputs": [],
      "stateMutability": "nonpayable",
      "type": "function"
    },
    {
      "inputs": [
        {
          "internalType": "address",
          "name": "operator",
          "type": "address"
        },
        {
          "internalType": "bool",
          "name": "approved",
          "type": "bool"
        }
      ],
      "name": "setApprovalForAll",
      "outputs": [],
      "stateMutability": "nonpayable",
      "type": "function"
    },
    {
      "inputs": [
        {
          "internalType": "bytes4",
          "name": "interfaceId",
          "type": "bytes4"
        }
      ],
      "name": "supportsInterface",
      "outputs": [
        {
          "internalType": "bool",
          "name": "",
          "type": "bool"
        }
      ],
      "stateMutability": "view",
      "type": "function"
    },
    {
      "inputs": [
        {
          "internalType": "uint256",
          "name": "poolId",
          "type": "uint256"
        },
        {
          "internalType": "uint256",
          "name": "amountIn",
          "type": "uint256"
        },
        {
          "internalType": "bool",
          "name": "isTokenAToRealDigital",
          "type": "bool"
        },
        {
          "internalType": "uint256",
          "name": "minAmountOut",
          "type": "uint256"
        }
      ],
      "name": "swap",
      "outputs": [],
      "stateMutability": "nonpayable",
      "type": "function"
    },
    {
      "inputs": [
        {
          "internalType": "uint256",
          "name": "",
          "type": "uint256"
        }
      ],
      "name": "uri",
      "outputs": [
        {
          "internalType": "string",
          "name": "",
          "type": "string"
        }
      ],
      "stateMutability": "view",
      "type": "function"
    }
  ],
  "bytecode": "0x608060405260016008553480156200001657600080fd5b50604051620049433803806200494383398181016040528101906200003c9190620003c0565b6040518060400160405280600381526020017f75726c00000000000000000000000000000000000000000000000000000000008152506200008381620001cc60201b60201c565b5081600460006101000a81548173ffffffffffffffffffffffffffffffffffffffff021916908373ffffffffffffffffffffffffffffffffffffffff16021790555082600560006101000a81548173ffffffffffffffffffffffffffffffffffffffff021916908373ffffffffffffffffffffffffffffffffffffffff16021790555080600660006101000a81548173ffffffffffffffffffffffffffffffffffffffff021916908373ffffffffffffffffffffffffffffffffffffffff1602179055506200015c6000801b33620001e160201b60201c565b506200018f7f13ca1dba405bba4ba5028b5a4b99dc6ad20b4c9d96f61f62d6e98aac31119b2433620001e160201b60201c565b50620001c27f13ca1dba405bba4ba5028b5a4b99dc6ad20b4c9d96f61f62d6e98aac31119b2482620001e160201b60201c565b505050506200077d565b8060039081620001dd919062000696565b5050565b6000620001f58383620002e460201b60201c565b620002d957600160008085815260200190815260200160002060000160008473ffffffffffffffffffffffffffffffffffffffff1673ffffffffffffffffffffffffffffffffffffffff16815260200190815260200160002060006101000a81548160ff021916908315150217905550620002756200034e60201b60201c565b73ffffffffffffffffffffffffffffffffffffffff168273ffffffffffffffffffffffffffffffffffffffff16847f2f8788117e7eff1d82e926ec794901d17c78024a50270940304540a733656f0d60405160405180910390a460019050620002de565b600090505b92915050565b600080600084815260200190815260200160002060000160008373ffffffffffffffffffffffffffffffffffffffff1673ffffffffffffffffffffffffffffffffffffffff16815260200190815260200160002060009054906101000a900460ff16905092915050565b600033905090565b600080fd5b600073ffffffffffffffffffffffffffffffffffffffff82169050919050565b600062000388826200035b565b9050919050565b6200039a816200037b565b8114620003a657600080fd5b50565b600081519050620003ba816200038f565b92915050565b600080600060608486031215620003dc57620003db62000356565b5b6000620003ec86828701620003a9565b9350506020620003ff86828701620003a9565b92505060406200041286828701620003a9565b9150509250925092565b600081519050919050565b7f4e487b7100000000000000000000000000000000000000000000000000000000600052604160045260246000fd5b7f4e487b7100000000000000000000000000000000000000000000000000000000600052602260045260246000fd5b600060028204905060018216806200049e57607f821691505b602082108103620004b457620004b362000456565b5b50919050565b60008190508160005260206000209050919050565b60006020601f8301049050919050565b600082821b905092915050565b6000600883026200051e7fffffffffffffffffffffffffffffffffffffffffffffffffffffffffffffffff82620004df565b6200052a8683620004df565b95508019841693508086168417925050509392505050565b6000819050919050565b6000819050919050565b600062000577620005716200056b8462000542565b6200054c565b62000542565b9050919050565b6000819050919050565b620005938362000556565b620005ab620005a2826200057e565b848454620004ec565b825550505050565b600090565b620005c2620005b3565b620005cf81848462000588565b505050565b5b81811015620005f757620005eb600082620005b8565b600181019050620005d5565b5050565b601f82111562000646576200061081620004ba565b6200061b84620004cf565b810160208510156200062b578190505b620006436200063a85620004cf565b830182620005d4565b50505b505050565b600082821c905092915050565b60006200066b600019846008026200064b565b1980831691505092915050565b600062000686838362000658565b9150826002028217905092915050565b620006a1826200041c565b67ffffffffffffffff811115620006bd57620006bc62000427565b5b620006c9825462000485565b620006d6828285620005fb565b600060209050601f8311600181146200070e5760008415620006f9578287015190505b62000705858262000678565b86555062000775565b601f1984166200071e86620004ba565b60005b82811015620007485784890151825560018201915060208501945060208101905062000721565b8683101562000768578489015162000764601f89168262000658565b8355505b6001600288020188555050505b505050505050565b6141b6806200078d6000396000f3fe608060405234801561001057600080fd5b50600436106101365760003560e01c80634e1273f4116100b8578063a217fddf1161007c578063a217fddf1461039a578063a22cb465146103b8578063d547741f146103d4578063e985e9c5146103f0578063f242432a14610420578063f91ed56c1461043c57610136565b80634e1273f4146102cb578063785a009e146102fb57806379d747be14610319578063854a02b71461034e57806391d148541461036a57610136565b8063248a9ca3116100ff578063248a9ca3146102175780632eb2c2d6146102475780632f2ff15d1461026357806336568abe1461027f57806343612b481461029b57610136565b8062fdd58e1461013b57806301ffc9a71461016b578063068bcd8d1461019b5780630e89341c146101cb5780631aa18bc0146101fb575b600080fd5b61015560048036038101906101509190612a98565b610458565b6040516101629190612ae7565b60405180910390f35b61018560048036038101906101809190612b5a565b6104b3565b6040516101929190612ba2565b60405180910390f35b6101b560048036038101906101b09190612bbd565b6104c5565b6040516101c29190612c74565b60405180910390f35b6101e560048036038101906101e09190612bbd565b61052e565b6040516101f29190612d1f565b60405180910390f35b61021560048036038101906102109190612d6d565b6105c2565b005b610231600480360381019061022c9190612e0a565b610b48565b60405161023e9190612e46565b60405180910390f35b610261600480360381019061025c919061305e565b610b67565b005b61027d6004803603810190610278919061312d565b610c0f565b005b6102996004803603810190610294919061312d565b610c31565b005b6102b560048036038101906102b09190613212565b610cac565b6040516102c29190612ae7565b60405180910390f35b6102e560048036038101906102e09190613315565b610cef565b6040516102f2919061343c565b60405180910390f35b610303610dfe565b6040516103109190612e46565b60405180910390f35b610333600480360381019061032e9190612bbd565b610e22565b6040516103459695949392919061345e565b60405180910390f35b610368600480360381019061036391906134bf565b610e5e565b005b610384600480360381019061037f919061312d565b610f6a565b6040516103919190612ba2565b60405180910390f35b6103a2610fd4565b6040516103af9190612e46565b60405180910390f35b6103d260048036038101906103cd9190613512565b610fdb565b005b6103ee60048036038101906103e9919061312d565b610ff1565b005b61040a60048036038101906104059190613552565b611013565b6040516104179190612ba2565b60405180910390f35b61043a60048036038101906104359190613592565b6110a7565b005b61045660048036038101906104519190613629565b61114f565b005b60006001600083815260200190815260200160002060008473ffffffffffffffffffffffffffffffffffffffff1673ffffffffffffffffffffffffffffffffffffffff16815260200190815260200160002054905092915050565b60006104be8261178f565b9050919050565b6104cd6129b0565b600760008381526020019081526020016000206040518060c001604052908160008201548152602001600182015481526020016002820154815260200160038201548152602001600482015481526020016005820154815250509050919050565b60606003805461053d90613698565b80601f016020809104026020016040519081016040528092919081815260200182805461056990613698565b80156105b65780601f1061058b576101008083540402835291602001916105b6565b820191906000526020600020905b81548152906001019060200180831161059957829003601f168201915b50505050509050919050565b60006007600086815260200190815260200160002090506000831561081b576105f985836002015484600301548560050154611871565b90508281101561063e576040517f08c379a000000000000000000000000000000000000000000000000000000000815260040161063590613715565b60405180910390fd5b600460009054906101000a900473ffffffffffffffffffffffffffffffffffffffff1673ffffffffffffffffffffffffffffffffffffffff1663f242432a33600660009054906101000a900473ffffffffffffffffffffffffffffffffffffffff168560000154896040518563ffffffff1660e01b81526004016106c5949392919061377b565b600060405180830381600087803b1580156106df57600080fd5b505af11580156106f3573d6000803e3d6000fd5b50505050600560009054906101000a900473ffffffffffffffffffffffffffffffffffffffff1673ffffffffffffffffffffffffffffffffffffffff166323b872dd600660009054906101000a900473ffffffffffffffffffffffffffffffffffffffff1633846040518463ffffffff1660e01b8152600401610778939291906137d3565b6020604051808303816000875af1158015610797573d6000803e3d6000fd5b505050506040513d601f19601f820116820180604052508101906107bb919061381f565b50846007600088815260200190815260200160002060020160008282546107e2919061387b565b925050819055508060076000888152602001908152602001600020600301600082825461080f91906138af565b92505081905550610ad6565b61083385836003015484600201548560050154611871565b905082811015610878576040517f08c379a000000000000000000000000000000000000000000000000000000000815260040161086f90613715565b60405180910390fd5b81600201548111156108bf576040517f08c379a00000000000000000000000000000000000000000000000000000000081526004016108b69061392f565b60405180910390fd5b600460009054906101000a900473ffffffffffffffffffffffffffffffffffffffff1673ffffffffffffffffffffffffffffffffffffffff1663f242432a600660009054906101000a900473ffffffffffffffffffffffffffffffffffffffff16338560000154856040518563ffffffff1660e01b8152600401610946949392919061377b565b600060405180830381600087803b15801561096057600080fd5b505af1158015610974573d6000803e3d6000fd5b50505050600560009054906101000a900473ffffffffffffffffffffffffffffffffffffffff1673ffffffffffffffffffffffffffffffffffffffff166323b872dd33600660009054906101000a900473ffffffffffffffffffffffffffffffffffffffff16886040518463ffffffff1660e01b81526004016109f9939291906137d3565b6020604051808303816000875af1158015610a18573d6000803e3d6000fd5b505050506040513d601f19601f82011682018060405250810190610a3c919061381f565b610a7b576040517f08c379a0000000000000000000000000000000000000000000000000000000008152600401610a729061399b565b60405180910390fd5b80600760008881526020019081526020016000206002016000828254610aa191906138af565b9250508190555084600760008881526020019081526020016000206003016000828254610ace919061387b565b925050819055505b600082600201546305f5e1008460030154610af191906139bb565b610afb9190613a2c565b90507f1c14051d685e9e661fdc166f6f244dfe6f3b1d3eb7b1d205215a8b7568f1ec5533888885600086604051610b3796959493929190613a5d565b60405180910390a150505050505050565b6000806000838152602001908152602001600020600101549050919050565b6000610b7161196b565b90508073ffffffffffffffffffffffffffffffffffffffff168673ffffffffffffffffffffffffffffffffffffffff1614158015610bb65750610bb48682611013565b155b15610bfa5780866040517fe237d922000000000000000000000000000000000000000000000000000000008152600401610bf1929190613abe565b60405180910390fd5b610c078686868686611973565b505050505050565b610c1882610b48565b610c2181611a6b565b610c2b8383611a7f565b50505050565b610c3961196b565b73ffffffffffffffffffffffffffffffffffffffff168173ffffffffffffffffffffffffffffffffffffffff1614610c9d576040517f6697b23200000000000000000000000000000000000000000000000000000000815260040160405180910390fd5b610ca78282611b70565b505050565b600080826020015103610cc157829050610ce9565b60008260600151836020015185610cd891906139bb565b610ce29190613a2c565b9050809150505b92915050565b60608151835114610d3b57815183516040517f5b059991000000000000000000000000000000000000000000000000000000008152600401610d32929190613ae7565b60405180910390fd5b6000835167ffffffffffffffff811115610d5857610d57612e66565b5b604051908082528060200260200182016040528015610d865781602001602082028036833780820191505090505b50905060005b8451811015610df357610dc3610dab8287611c6290919063ffffffff16565b610dbe8387611c7690919063ffffffff16565b610458565b828281518110610dd657610dd5613b10565b5b60200260200101818152505080610dec90613b3f565b9050610d8c565b508091505092915050565b7f13ca1dba405bba4ba5028b5a4b99dc6ad20b4c9d96f61f62d6e98aac31119b2481565b60076020528060005260406000206000915090508060000154908060010154908060020154908060030154908060040154908060050154905086565b7f13ca1dba405bba4ba5028b5a4b99dc6ad20b4c9d96f61f62d6e98aac31119b24610e8881611a6b565b60006040518060c0016040528086815260200160008152602001600081526020016000815260200185815260200184815250905080600760006008548152602001908152602001600020600082015181600001556020820151816001015560408201518160020155606082015181600301556080820151816004015560a082015181600501559050506008547ff272198943ab14097d28c32420bde8399512e10fee32953a5527aaf0124b17fe82604051610f439190612c74565b60405180910390a260086000815480929190610f5e90613b3f565b91905055505050505050565b600080600084815260200190815260200160002060000160008373ffffffffffffffffffffffffffffffffffffffff1673ffffffffffffffffffffffffffffffffffffffff16815260200190815260200160002060009054906101000a900460ff16905092915050565b6000801b81565b610fed610fe661196b565b8383611c8a565b5050565b610ffa82610b48565b61100381611a6b565b61100d8383611b70565b50505050565b6000600260008473ffffffffffffffffffffffffffffffffffffffff1673ffffffffffffffffffffffffffffffffffffffff16815260200190815260200160002060008373ffffffffffffffffffffffffffffffffffffffff1673ffffffffffffffffffffffffffffffffffffffff16815260200190815260200160002060009054906101000a900460ff16905092915050565b60006110b161196b565b90508073ffffffffffffffffffffffffffffffffffffffff168673ffffffffffffffffffffffffffffffffffffffff16141580156110f657506110f48682611013565b155b1561113a5780866040517fe237d922000000000000000000000000000000000000000000000000000000008152600401611131929190613abe565b60405180910390fd5b6111478686868686611dfa565b505050505050565b600060076000848152602001908152602001600020905060008160000154116111ad576040517f08c379a00000000000000000000000000000000000000000000000000000000081526004016111a490613bd3565b60405180910390fd5b600082116111f0576040517f08c379a00000000000000000000000000000000000000000000000000000000081526004016111e790613c65565b60405180910390fd5b600080826001015403611223576305f5e10082600401548461121291906139bb565b61121c9190613a2c565b9050611245565b816002015482600301548461123891906139bb565b6112429190613a2c565b90505b6112886040518060400160405280600d81526020017f746f74616c537570706c794c50000000000000000000000000000000000000008152508360010154611f05565b6112c76040518060400160405280600781526020017f616d6f756e74410000000000000000000000000000000000000000000000000081525084611f05565b61130a6040518060400160405280601381526020017f20706f6f6c2e696e697469616c507269636541000000000000000000000000008152508360040154611f05565b6113496040518060400160405280601081526020017f7265616c4469676974616c56616c75650000000000000000000000000000000081525082611f05565b80600560009054906101000a900473ffffffffffffffffffffffffffffffffffffffff1673ffffffffffffffffffffffffffffffffffffffff166370a08231336040518263ffffffff1660e01b81526004016113a59190613c85565b602060405180830381865afa1580156113c2573d6000803e3d6000fd5b505050506040513d601f19601f820116820180604052508101906113e69190613cb5565b1015611427576040517f08c379a000000000000000000000000000000000000000000000000000000000815260040161141e90613d54565b60405180910390fd5b82600460009054906101000a900473ffffffffffffffffffffffffffffffffffffffff1673ffffffffffffffffffffffffffffffffffffffff1662fdd58e3385600001546040518363ffffffff1660e01b8152600401611488929190613d74565b602060405180830381865afa1580156114a5573d6000803e3d6000fd5b505050506040513d601f19601f820116820180604052508101906114c99190613cb5565b101561150a576040517f08c379a000000000000000000000000000000000000000000000000000000000815260040161150190613de9565b60405180910390fd5b600560009054906101000a900473ffffffffffffffffffffffffffffffffffffffff1673ffffffffffffffffffffffffffffffffffffffff166323b872dd33600660009054906101000a900473ffffffffffffffffffffffffffffffffffffffff16846040518463ffffffff1660e01b815260040161158b939291906137d3565b6020604051808303816000875af11580156115aa573d6000803e3d6000fd5b505050506040513d601f19601f820116820180604052508101906115ce919061381f565b50600061162282846040518060c00160405290816000820154815260200160018201548152602001600282015481526020016003820154815260200160048201548152602001600582015481525050610cac565b905083836002016000828254611638919061387b565b9250508190555081836003016000828254611653919061387b565b92505081905550600460009054906101000a900473ffffffffffffffffffffffffffffffffffffffff1673ffffffffffffffffffffffffffffffffffffffff1663f242432a33600660009054906101000a900473ffffffffffffffffffffffffffffffffffffffff168660000154886040518563ffffffff1660e01b81526004016116e1949392919061377b565b600060405180830381600087803b1580156116fb57600080fd5b505af115801561170f573d6000803e3d6000fd5b5050505061172e33868360405180602001604052806000815250611fa1565b80836001016000828254611742919061387b565b925050819055507f08d7621a09a86934f387f650007fa17f2413759ca5f2ae0681161b371583a5f53386868585604051611780959493929190613e09565b60405180910390a15050505050565b60007fd9b67a26000000000000000000000000000000000000000000000000000000007bffffffffffffffffffffffffffffffffffffffffffffffffffffffff1916827bffffffffffffffffffffffffffffffffffffffffffffffffffffffff1916148061185a57507f0e89341c000000000000000000000000000000000000000000000000000000007bffffffffffffffffffffffffffffffffffffffffffffffffffffffff1916827bffffffffffffffffffffffffffffffffffffffffffffffffffffffff1916145b8061186a57506118698261203a565b5b9050919050565b60008085116118b5576040517f08c379a00000000000000000000000000000000000000000000000000000000081526004016118ac90613ea8565b60405180910390fd5b6000841180156118c55750600083115b611904576040517f08c379a00000000000000000000000000000000000000000000000000000000081526004016118fb90613f14565b60405180910390fd5b60006305f5e100836305f5e10061191b91906138af565b8761192691906139bb565b6119309190613a2c565b90506000848261194091906139bb565b905060008287611950919061387b565b9050808261195e9190613a2c565b9350505050949350505050565b600033905090565b600073ffffffffffffffffffffffffffffffffffffffff168473ffffffffffffffffffffffffffffffffffffffff16036119e55760006040517f57f447ce0000000000000000000000000000000000000000000000000000000081526004016119dc9190613c85565b60405180910390fd5b600073ffffffffffffffffffffffffffffffffffffffff168573ffffffffffffffffffffffffffffffffffffffff1603611a575760006040517f01a83514000000000000000000000000000000000000000000000000000000008152600401611a4e9190613c85565b60405180910390fd5b611a6485858585856120b4565b5050505050565b611a7c81611a7761196b565b612166565b50565b6000611a8b8383610f6a565b611b6557600160008085815260200190815260200160002060000160008473ffffffffffffffffffffffffffffffffffffffff1673ffffffffffffffffffffffffffffffffffffffff16815260200190815260200160002060006101000a81548160ff021916908315150217905550611b0261196b565b73ffffffffffffffffffffffffffffffffffffffff168273ffffffffffffffffffffffffffffffffffffffff16847f2f8788117e7eff1d82e926ec794901d17c78024a50270940304540a733656f0d60405160405180910390a460019050611b6a565b600090505b92915050565b6000611b7c8383610f6a565b15611c5757600080600085815260200190815260200160002060000160008473ffffffffffffffffffffffffffffffffffffffff1673ffffffffffffffffffffffffffffffffffffffff16815260200190815260200160002060006101000a81548160ff021916908315150217905550611bf461196b565b73ffffffffffffffffffffffffffffffffffffffff168273ffffffffffffffffffffffffffffffffffffffff16847ff6391f5c32d9c69d2a47ea670b442974b53935d1edc7fd64eb21e047a839171b60405160405180910390a460019050611c5c565b600090505b92915050565b600060208202602084010151905092915050565b600060208202602084010151905092915050565b600073ffffffffffffffffffffffffffffffffffffffff168273ffffffffffffffffffffffffffffffffffffffff1603611cfc5760006040517fced3e100000000000000000000000000000000000000000000000000000000008152600401611cf39190613c85565b60405180910390fd5b80600260008573ffffffffffffffffffffffffffffffffffffffff1673ffffffffffffffffffffffffffffffffffffffff16815260200190815260200160002060008473ffffffffffffffffffffffffffffffffffffffff1673ffffffffffffffffffffffffffffffffffffffff16815260200190815260200160002060006101000a81548160ff0219169083151502179055508173ffffffffffffffffffffffffffffffffffffffff168373ffffffffffffffffffffffffffffffffffffffff167f17307eab39ab6107e8899845ad3d59bd9653f200f220920489ca2b5937696c3183604051611ded9190612ba2565b60405180910390a3505050565b600073ffffffffffffffffffffffffffffffffffffffff168473ffffffffffffffffffffffffffffffffffffffff1603611e6c5760006040517f57f447ce000000000000000000000000000000000000000000000000000000008152600401611e639190613c85565b60405180910390fd5b600073ffffffffffffffffffffffffffffffffffffffff168573ffffffffffffffffffffffffffffffffffffffff1603611ede5760006040517f01a83514000000000000000000000000000000000000000000000000000000008152600401611ed59190613c85565b60405180910390fd5b600080611eeb85856121b7565b91509150611efc87878484876120b4565b50505050505050565b611f9d8282604051602401611f1b929190613f34565b6040516020818303038152906040527fb60e72cc000000000000000000000000000000000000000000000000000000007bffffffffffffffffffffffffffffffffffffffffffffffffffffffff19166020820180517bffffffffffffffffffffffffffffffffffffffffffffffffffffffff83818316178352505050506121e7565b5050565b600073ffffffffffffffffffffffffffffffffffffffff168473ffffffffffffffffffffffffffffffffffffffff16036120135760006040517f57f447ce00000000000000000000000000000000000000000000000000000000815260040161200a9190613c85565b60405180910390fd5b60008061202085856121b7565b915091506120326000878484876120b4565b505050505050565b60007f7965db0b000000000000000000000000000000000000000000000000000000007bffffffffffffffffffffffffffffffffffffffffffffffffffffffff1916827bffffffffffffffffffffffffffffffffffffffffffffffffffffffff191614806120ad57506120ac82612201565b5b9050919050565b6120c08585858561226b565b600073ffffffffffffffffffffffffffffffffffffffff168473ffffffffffffffffffffffffffffffffffffffff161461215f5760006120fe61196b565b9050600184510361214e57600061211f600086611c7690919063ffffffff16565b90506000612137600086611c7690919063ffffffff16565b905061214783898985858961261c565b505061215d565b61215c8187878787876127d0565b5b505b5050505050565b6121708282610f6a565b6121b35780826040517fe2517d3f0000000000000000000000000000000000000000000000000000000081526004016121aa929190613f64565b60405180910390fd5b5050565b60608060405191506001825283602083015260408201905060018152826020820152604081016040529250929050565b6121fe816121f66129846129a5565b63ffffffff16565b50565b60007f01ffc9a7000000000000000000000000000000000000000000000000000000007bffffffffffffffffffffffffffffffffffffffffffffffffffffffff1916827bffffffffffffffffffffffffffffffffffffffffffffffffffffffff1916149050919050565b80518251146122b557815181516040517f5b0599910000000000000000000000000000000000000000000000000000000081526004016122ac929190613ae7565b60405180910390fd5b60006122bf61196b565b905060005b83518110156124d75760006122e28286611c7690919063ffffffff16565b905060006122f98386611c7690919063ffffffff16565b9050600073ffffffffffffffffffffffffffffffffffffffff168873ffffffffffffffffffffffffffffffffffffffff16146124285760006001600084815260200190815260200160002060008a73ffffffffffffffffffffffffffffffffffffffff1673ffffffffffffffffffffffffffffffffffffffff168152602001908152602001600020549050818110156123cf57888183856040517f03dee4c50000000000000000000000000000000000000000000000000000000081526004016123c69493929190613f8d565b60405180910390fd5b8181036001600085815260200190815260200160002060008b73ffffffffffffffffffffffffffffffffffffffff1673ffffffffffffffffffffffffffffffffffffffff16815260200190815260200160002081905550505b600073ffffffffffffffffffffffffffffffffffffffff168773ffffffffffffffffffffffffffffffffffffffff16146124c457806001600084815260200190815260200160002060008973ffffffffffffffffffffffffffffffffffffffff1673ffffffffffffffffffffffffffffffffffffffff16815260200190815260200160002060008282546124bc919061387b565b925050819055505b5050806124d090613b3f565b90506122c4565b5060018351036125965760006124f7600085611c7690919063ffffffff16565b9050600061250f600085611c7690919063ffffffff16565b90508573ffffffffffffffffffffffffffffffffffffffff168773ffffffffffffffffffffffffffffffffffffffff168473ffffffffffffffffffffffffffffffffffffffff167fc3d58168c5ae7397731d063d5bbf3d657854427343f4c083240f7aacaa2d0f628585604051612587929190613ae7565b60405180910390a45050612615565b8373ffffffffffffffffffffffffffffffffffffffff168573ffffffffffffffffffffffffffffffffffffffff168273ffffffffffffffffffffffffffffffffffffffff167f4a39dc06d4c0dbc64b70af90fd698a233a518aa5d07e595d983b8c0526c8f7fb868660405161260c929190613fd2565b60405180910390a45b5050505050565b60008473ffffffffffffffffffffffffffffffffffffffff163b11156127c8578373ffffffffffffffffffffffffffffffffffffffff1663f23a6e6187878686866040518663ffffffff1660e01b815260040161267d95949392919061404d565b6020604051808303816000875af19250505080156126b957506040513d601f19601f820116820180604052508101906126b691906140bc565b60015b61273d573d80600081146126e9576040519150601f19603f3d011682016040523d82523d6000602084013e6126ee565b606091505b50600081510361273557846040517f57f447ce00000000000000000000000000000000000000000000000000000000815260040161272c9190613c85565b60405180910390fd5b805181602001fd5b63f23a6e6160e01b7bffffffffffffffffffffffffffffffffffffffffffffffffffffffff1916817bffffffffffffffffffffffffffffffffffffffffffffffffffffffff1916146127c657846040517f57f447ce0000000000000000000000000000000000000000000000000000000081526004016127bd9190613c85565b60405180910390fd5b505b505050505050565b60008473ffffffffffffffffffffffffffffffffffffffff163b111561297c578373ffffffffffffffffffffffffffffffffffffffff1663bc197c8187878686866040518663ffffffff1660e01b81526004016128319594939291906140e9565b6020604051808303816000875af192505050801561286d57506040513d601f19601f8201168201806040525081019061286a91906140bc565b60015b6128f1573d806000811461289d576040519150601f19603f3d011682016040523d82523d6000602084013e6128a2565b606091505b5060008151036128e957846040517f57f447ce0000000000000000000000000000000000000000000000000000000081526004016128e09190613c85565b60405180910390fd5b805181602001fd5b63bc197c8160e01b7bffffffffffffffffffffffffffffffffffffffffffffffffffffffff1916817bffffffffffffffffffffffffffffffffffffffffffffffffffffffff19161461297a57846040517f57f447ce0000000000000000000000000000000000000000000000000000000081526004016129719190613c85565b60405180910390fd5b505b505050505050565b60006a636f6e736f6c652e6c6f679050600080835160208501845afa505050565b6129e6819050919050565b6040518060c001604052806000815260200160008152602001600081526020016000815260200160008152602001600081525090565b6129ee614151565b565b6000604051905090565b600080fd5b600080fd5b600073ffffffffffffffffffffffffffffffffffffffff82169050919050565b6000612a2f82612a04565b9050919050565b612a3f81612a24565b8114612a4a57600080fd5b50565b600081359050612a5c81612a36565b92915050565b6000819050919050565b612a7581612a62565b8114612a8057600080fd5b50565b600081359050612a9281612a6c565b92915050565b60008060408385031215612aaf57612aae6129fa565b5b6000612abd85828601612a4d565b9250506020612ace85828601612a83565b9150509250929050565b612ae181612a62565b82525050565b6000602082019050612afc6000830184612ad8565b92915050565b60007fffffffff0000000000000000000000000000000000000000000000000000000082169050919050565b612b3781612b02565b8114612b4257600080fd5b50565b600081359050612b5481612b2e565b92915050565b600060208284031215612b7057612b6f6129fa565b5b6000612b7e84828501612b45565b91505092915050565b60008115159050919050565b612b9c81612b87565b82525050565b6000602082019050612bb76000830184612b93565b92915050565b600060208284031215612bd357612bd26129fa565b5b6000612be184828501612a83565b91505092915050565b612bf381612a62565b82525050565b60c082016000820151612c0f6000850182612bea565b506020820151612c226020850182612bea565b506040820151612c356040850182612bea565b506060820151612c486060850182612bea565b506080820151612c5b6080850182612bea565b5060a0820151612c6e60a0850182612bea565b50505050565b600060c082019050612c896000830184612bf9565b92915050565b600081519050919050565b600082825260208201905092915050565b60005b83811015612cc9578082015181840152602081019050612cae565b60008484015250505050565b6000601f19601f8301169050919050565b6000612cf182612c8f565b612cfb8185612c9a565b9350612d0b818560208601612cab565b612d1481612cd5565b840191505092915050565b60006020820190508181036000830152612d398184612ce6565b905092915050565b612d4a81612b87565b8114612d5557600080fd5b50565b600081359050612d6781612d41565b92915050565b60008060008060808587031215612d8757612d866129fa565b5b6000612d9587828801612a83565b9450506020612da687828801612a83565b9350506040612db787828801612d58565b9250506060612dc887828801612a83565b91505092959194509250565b6000819050919050565b612de781612dd4565b8114612df257600080fd5b50565b600081359050612e0481612dde565b92915050565b600060208284031215612e2057612e1f6129fa565b5b6000612e2e84828501612df5565b91505092915050565b612e4081612dd4565b82525050565b6000602082019050612e5b6000830184612e37565b92915050565b600080fd5b7f4e487b7100000000000000000000000000000000000000000000000000000000600052604160045260246000fd5b612e9e82612cd5565b810181811067ffffffffffffffff82111715612ebd57612ebc612e66565b5b80604052505050565b6000612ed06129f0565b9050612edc8282612e95565b919050565b600067ffffffffffffffff821115612efc57612efb612e66565b5b602082029050602081019050919050565b600080fd5b6000612f25612f2084612ee1565b612ec6565b90508083825260208201905060208402830185811115612f4857612f47612f0d565b5b835b81811015612f715780612f5d8882612a83565b845260208401935050602081019050612f4a565b5050509392505050565b600082601f830112612f9057612f8f612e61565b5b8135612fa0848260208601612f12565b91505092915050565b600080fd5b600067ffffffffffffffff821115612fc957612fc8612e66565b5b612fd282612cd5565b9050602081019050919050565b82818337600083830152505050565b6000613001612ffc84612fae565b612ec6565b90508281526020810184848401111561301d5761301c612fa9565b5b613028848285612fdf565b509392505050565b600082601f83011261304557613044612e61565b5b8135613055848260208601612fee565b91505092915050565b600080600080600060a0868803121561307a576130796129fa565b5b600061308888828901612a4d565b955050602061309988828901612a4d565b945050604086013567ffffffffffffffff8111156130ba576130b96129ff565b5b6130c688828901612f7b565b935050606086013567ffffffffffffffff8111156130e7576130e66129ff565b5b6130f388828901612f7b565b925050608086013567ffffffffffffffff811115613114576131136129ff565b5b61312088828901613030565b9150509295509295909350565b60008060408385031215613144576131436129fa565b5b600061315285828601612df5565b925050602061316385828601612a4d565b9150509250929050565b600080fd5b600060c082840312156131885761318761316d565b5b61319260c0612ec6565b905060006131a284828501612a83565b60008301525060206131b684828501612a83565b60208301525060406131ca84828501612a83565b60408301525060606131de84828501612a83565b60608301525060806131f284828501612a83565b60808301525060a061320684828501612a83565b60a08301525092915050565b60008060e08385031215613229576132286129fa565b5b600061323785828601612a83565b925050602061324885828601613172565b9150509250929050565b600067ffffffffffffffff82111561326d5761326c612e66565b5b602082029050602081019050919050565b600061329161328c84613252565b612ec6565b905080838252602082019050602084028301858111156132b4576132b3612f0d565b5b835b818110156132dd57806132c98882612a4d565b8452602084019350506020810190506132b6565b5050509392505050565b600082601f8301126132fc576132fb612e61565b5b813561330c84826020860161327e565b91505092915050565b6000806040838503121561332c5761332b6129fa565b5b600083013567ffffffffffffffff81111561334a576133496129ff565b5b613356858286016132e7565b925050602083013567ffffffffffffffff811115613377576133766129ff565b5b61338385828601612f7b565b9150509250929050565b600081519050919050565b600082825260208201905092915050565b6000819050602082019050919050565b60006133c58383612bea565b60208301905092915050565b6000602082019050919050565b60006133e98261338d565b6133f38185613398565b93506133fe836133a9565b8060005b8381101561342f57815161341688826133b9565b9750613421836133d1565b925050600181019050613402565b5085935050505092915050565b6000602082019050818103600083015261345681846133de565b905092915050565b600060c0820190506134736000830189612ad8565b6134806020830188612ad8565b61348d6040830187612ad8565b61349a6060830186612ad8565b6134a76080830185612ad8565b6134b460a0830184612ad8565b979650505050505050565b6000806000606084860312156134d8576134d76129fa565b5b60006134e686828701612a83565b93505060206134f786828701612a83565b925050604061350886828701612a83565b9150509250925092565b60008060408385031215613529576135286129fa565b5b600061353785828601612a4d565b925050602061354885828601612d58565b9150509250929050565b60008060408385031215613569576135686129fa565b5b600061357785828601612a4d565b925050602061358885828601612a4d565b9150509250929050565b600080600080600060a086880312156135ae576135ad6129fa565b5b60006135bc88828901612a4d565b95505060206135cd88828901612a4d565b94505060406135de88828901612a83565b93505060606135ef88828901612a83565b925050608086013567ffffffffffffffff8111156136105761360f6129ff565b5b61361c88828901613030565b9150509295509295909350565b600080604083850312156136405761363f6129fa565b5b600061364e85828601612a83565b925050602061365f85828601612a83565b9150509250929050565b7f4e487b7100000000000000000000000000000000000000000000000000000000600052602260045260246000fd5b600060028204905060018216806136b057607f821691505b6020821081036136c3576136c2613669565b5b50919050565b7f536c697070616765206c696d6974206578636565646564000000000000000000600082015250565b60006136ff601783612c9a565b915061370a826136c9565b602082019050919050565b6000602082019050818103600083015261372e816136f2565b9050919050565b61373e81612a24565b82525050565b600082825260208201905092915050565b50565b6000613765600083613744565b915061377082613755565b600082019050919050565b600060a0820190506137906000830187613735565b61379d6020830186613735565b6137aa6040830185612ad8565b6137b76060830184612ad8565b81810360808301526137c881613758565b905095945050505050565b60006060820190506137e86000830186613735565b6137f56020830185613735565b6138026040830184612ad8565b949350505050565b60008151905061381981612d41565b92915050565b600060208284031215613835576138346129fa565b5b60006138438482850161380a565b91505092915050565b7f4e487b7100000000000000000000000000000000000000000000000000000000600052601160045260246000fd5b600061388682612a62565b915061389183612a62565b92508282019050808211156138a9576138a861384c565b5b92915050565b60006138ba82612a62565b91506138c583612a62565b92508282039050818111156138dd576138dc61384c565b5b92915050565b7f496e73756666696369656e74206c697175696469747900000000000000000000600082015250565b6000613919601683612c9a565b9150613924826138e3565b602082019050919050565b600060208201905081810360008301526139488161390c565b9050919050565b7f5472616e73666572c3aa6e63696120646520445245582066616c686f75000000600082015250565b6000613985601d83612c9a565b91506139908261394f565b602082019050919050565b600060208201905081810360008301526139b481613978565b9050919050565b60006139c682612a62565b91506139d183612a62565b92508282026139df81612a62565b915082820484148315176139f6576139f561384c565b5b5092915050565b7f4e487b7100000000000000000000000000000000000000000000000000000000600052601260045260246000fd5b6000613a3782612a62565b9150613a4283612a62565b925082613a5257613a516139fd565b5b828204905092915050565b600060c082019050613a726000830189613735565b613a7f6020830188612ad8565b613a8c6040830187612ad8565b613a996060830186612ad8565b613aa66080830185612b93565b613ab360a0830184612ad8565b979650505050505050565b6000604082019050613ad36000830185613735565b613ae06020830184613735565b9392505050565b6000604082019050613afc6000830185612ad8565b613b096020830184612ad8565b9392505050565b7f4e487b7100000000000000000000000000000000000000000000000000000000600052603260045260246000fd5b6000613b4a82612a62565b91507fffffffffffffffffffffffffffffffffffffffffffffffffffffffffffffffff8203613b7c57613b7b61384c565b5b600182019050919050565b7f506f6f6c206ec3a36f2065786973746500000000000000000000000000000000600082015250565b6000613bbd601083612c9a565b9150613bc882613b87565b602082019050919050565b60006020820190508181036000830152613bec81613bb0565b9050919050565b7f5175616e74696461646520646520746f6b656e41206465766520736572206d6160008201527f696f7220717565207a65726f0000000000000000000000000000000000000000602082015250565b6000613c4f602c83612c9a565b9150613c5a82613bf3565b604082019050919050565b60006020820190508181036000830152613c7e81613c42565b9050919050565b6000602082019050613c9a6000830184613735565b92915050565b600081519050613caf81612a6c565b92915050565b600060208284031215613ccb57613cca6129fa565b5b6000613cd984828501613ca0565b91505092915050565b7f53616c646f206465205265616c204469676974616c20696e737566696369656e60008201527f7465000000000000000000000000000000000000000000000000000000000000602082015250565b6000613d3e602283612c9a565b9150613d4982613ce2565b604082019050919050565b60006020820190508181036000830152613d6d81613d31565b9050919050565b6000604082019050613d896000830185613735565b613d966020830184612ad8565b9392505050565b7f53616c646f206465205450467420696e737566696369656e7465000000000000600082015250565b6000613dd3601a83612c9a565b9150613dde82613d9d565b602082019050919050565b60006020820190508181036000830152613e0281613dc6565b9050919050565b600060a082019050613e1e6000830188613735565b613e2b6020830187612ad8565b613e386040830186612ad8565b613e456060830185612ad8565b613e526080830184612ad8565b9695505050505050565b7f496e76616c696420696e70757420616d6f756e74000000000000000000000000600082015250565b6000613e92601483612c9a565b9150613e9d82613e5c565b602082019050919050565b60006020820190508181036000830152613ec181613e85565b9050919050565b7f496e76616c696420706f6f6c2072657365727665730000000000000000000000600082015250565b6000613efe601583612c9a565b9150613f0982613ec8565b602082019050919050565b60006020820190508181036000830152613f2d81613ef1565b9050919050565b60006040820190508181036000830152613f4e8185612ce6565b9050613f5d6020830184612ad8565b9392505050565b6000604082019050613f796000830185613735565b613f866020830184612e37565b9392505050565b6000608082019050613fa26000830187613735565b613faf6020830186612ad8565b613fbc6040830185612ad8565b613fc96060830184612ad8565b95945050505050565b60006040820190508181036000830152613fec81856133de565b9050818103602083015261400081846133de565b90509392505050565b600081519050919050565b600061401f82614009565b6140298185613744565b9350614039818560208601612cab565b61404281612cd5565b840191505092915050565b600060a0820190506140626000830188613735565b61406f6020830187613735565b61407c6040830186612ad8565b6140896060830185612ad8565b818103608083015261409b8184614014565b90509695505050505050565b6000815190506140b681612b2e565b92915050565b6000602082840312156140d2576140d16129fa565b5b60006140e0848285016140a7565b91505092915050565b600060a0820190506140fe6000830188613735565b61410b6020830187613735565b818103604083015261411d81866133de565b9050818103606083015261413181856133de565b905081810360808301526141458184614014565b90509695505050505050565b7f4e487b7100000000000000000000000000000000000000000000000000000000600052605160045260246000fdfea2646970667358221220e0228aa20717894a1ad8abab8c864c26e90098d6d160b573f14d7974d375ad9064736f6c63430008140033",
  "linkReferences": {},
  "deployedLinkReferences": {}
}