{
  "_format": "hh-sol-artifact-1",
  "contractName": "TPFtAccessControl",
  "sourceName": "contracts/drex/TPFtAccessControl.sol",
  "abi": [
    {
      "inputs": [],
      "stateMutability": "nonpayable",
      "type": "constructor"
    },
    {
      "inputs": [],
      "name": "AccessControlBadConfirmation",
      "type": "error"
    },
    {
      "inputs": [
        {
          "internalType": "address",
          "name": "account",
          "type": "address"
        },
        {
          "internalType": "bytes32",
          "name": "neededRole",
          "type": "bytes32"
        }
      ],
      "name": "AccessControlUnauthorizedAccount",
      "type": "error"
    },
    {
      "anonymous": false,
      "inputs": [
        {
          "indexed": true,
          "internalType": "bytes32",
          "name": "role",
          "type": "bytes32"
        },
        {
          "indexed": true,
          "internalType": "bytes32",
          "name": "previousAdminRole",
          "type": "bytes32"
        },
        {
          "indexed": true,
          "internalType": "bytes32",
          "name": "newAdminRole",
          "type": "bytes32"
        }
      ],
      "name": "RoleAdminChanged",
      "type": "event"
    },
    {
      "anonymous": false,
      "inputs": [
        {
          "indexed": true,
          "internalType": "bytes32",
          "name": "role",
          "type": "bytes32"
        },
        {
          "indexed": true,
          "internalType": "address",
          "name": "account",
          "type": "address"
        },
        {
          "indexed": true,
          "internalType": "address",
          "name": "sender",
          "type": "address"
        }
      ],
      "name": "RoleGranted",
      "type": "event"
    },
    {
      "anonymous": false,
      "inputs": [
        {
          "indexed": true,
          "internalType": "bytes32",
          "name": "role",
          "type": "bytes32"
        },
        {
          "indexed": true,
          "internalType": "address",
          "name": "account",
          "type": "address"
        },
        {
          "indexed": true,
          "internalType": "address",
          "name": "sender",
          "type": "address"
        }
      ],
      "name": "RoleRevoked",
      "type": "event"
    },
    {
      "inputs": [],
      "name": "AUCTION_PLACEMENT_ROLE",
      "outputs": [
        {
          "internalType": "bytes32",
          "name": "",
          "type": "bytes32"
        }
      ],
      "stateMutability": "view",
      "type": "function"
    },
    {
      "inputs": [],
      "name": "DEFAULT_ADMIN_ROLE",
      "outputs": [
        {
          "internalType": "bytes32",
          "name": "",
          "type": "bytes32"
        }
      ],
      "stateMutability": "view",
      "type": "function"
    },
    {
      "inputs": [],
      "name": "DIRECT_PLACEMENT_ROLE",
      "outputs": [
        {
          "internalType": "bytes32",
          "name": "",
          "type": "bytes32"
        }
      ],
      "stateMutability": "view",
      "type": "function"
    },
    {
      "inputs": [],
      "name": "FREEZER_ROLE",
      "outputs": [
        {
          "internalType": "bytes32",
          "name": "",
          "type": "bytes32"
        }
      ],
      "stateMutability": "view",
      "type": "function"
    },
    {
      "inputs": [],
      "name": "MINTER_ROLE",
      "outputs": [
        {
          "internalType": "bytes32",
          "name": "",
          "type": "bytes32"
        }
      ],
      "stateMutability": "view",
      "type": "function"
    },
    {
      "inputs": [
        {
          "internalType": "address",
          "name": "member",
          "type": "address"
        }
      ],
      "name": "allowAuctionPlacement",
      "outputs": [],
      "stateMutability": "nonpayable",
      "type": "function"
    },
    {
      "inputs": [
        {
          "internalType": "address",
          "name": "member",
          "type": "address"
        }
      ],
      "name": "allowDirectPlacement",
      "outputs": [],
      "stateMutability": "nonpayable",
      "type": "function"
    },
    {
      "inputs": [
        {
          "internalType": "address",
          "name": "member",
          "type": "address"
        }
      ],
      "name": "allowFreezingPlacement",
      "outputs": [],
      "stateMutability": "nonpayable",
      "type": "function"
    },
    {
      "inputs": [
        {
          "internalType": "address",
          "name": "member",
          "type": "address"
        }
      ],
      "name": "allowTPFtMint",
      "outputs": [],
      "stateMutability": "nonpayable",
      "type": "function"
    },
    {
      "inputs": [
        {
          "internalType": "address",
          "name": "member",
          "type": "address"
        }
      ],
      "name": "disableAddress",
      "outputs": [],
      "stateMutability": "nonpayable",
      "type": "function"
    },
    {
      "inputs": [
        {
          "internalType": "address",
          "name": "member",
          "type": "address"
        }
      ],
      "name": "enableAddress",
      "outputs": [],
      "stateMutability": "nonpayable",
      "type": "function"
    },
    {
      "inputs": [
        {
          "internalType": "bytes32",
          "name": "role",
          "type": "bytes32"
        }
      ],
      "name": "getRoleAdmin",
      "outputs": [
        {
          "internalType": "bytes32",
          "name": "",
          "type": "bytes32"
        }
      ],
      "stateMutability": "view",
      "type": "function"
    },
    {
      "inputs": [
        {
          "internalType": "bytes32",
          "name": "role",
          "type": "bytes32"
        },
        {
          "internalType": "address",
          "name": "account",
          "type": "address"
        }
      ],
      "name": "grantRole",
      "outputs": [],
      "stateMutability": "nonpayable",
      "type": "function"
    },
    {
      "inputs": [
        {
          "internalType": "bytes32",
          "name": "role",
          "type": "bytes32"
        },
        {
          "internalType": "address",
          "name": "account",
          "type": "address"
        }
      ],
      "name": "hasRole",
      "outputs": [
        {
          "internalType": "bool",
          "name": "",
          "type": "bool"
        }
      ],
      "stateMutability": "view",
      "type": "function"
    },
    {
      "inputs": [
        {
          "internalType": "address",
          "name": "member",
          "type": "address"
        }
      ],
      "name": "isEnabledAddress",
      "outputs": [
        {
          "internalType": "bool",
          "name": "",
          "type": "bool"
        }
      ],
      "stateMutability": "view",
      "type": "function"
    },
    {
      "inputs": [
        {
          "internalType": "bytes32",
          "name": "role",
          "type": "bytes32"
        },
        {
          "internalType": "address",
          "name": "callerConfirmation",
          "type": "address"
        }
      ],
      "name": "renounceRole",
      "outputs": [],
      "stateMutability": "nonpayable",
      "type": "function"
    },
    {
      "inputs": [
        {
          "internalType": "bytes32",
          "name": "role",
          "type": "bytes32"
        },
        {
          "internalType": "address",
          "name": "account",
          "type": "address"
        }
      ],
      "name": "revokeRole",
      "outputs": [],
      "stateMutability": "nonpayable",
      "type": "function"
    },
    {
      "inputs": [
        {
          "internalType": "bytes4",
          "name": "interfaceId",
          "type": "bytes4"
        }
      ],
      "name": "supportsInterface",
      "outputs": [
        {
          "internalType": "bool",
          "name": "",
          "type": "bool"
        }
      ],
      "stateMutability": "view",
      "type": "function"
    }
  ],
  "bytecode": "0x608060405234801561001057600080fd5b506100246000801b3361002a60201b60201c565b50610199565b600061003c838361012760201b60201c565b61011c57600160008085815260200190815260200160002060000160008473ffffffffffffffffffffffffffffffffffffffff1673ffffffffffffffffffffffffffffffffffffffff16815260200190815260200160002060006101000a81548160ff0219169083151502179055506100b961019160201b60201c565b73ffffffffffffffffffffffffffffffffffffffff168273ffffffffffffffffffffffffffffffffffffffff16847f2f8788117e7eff1d82e926ec794901d17c78024a50270940304540a733656f0d60405160405180910390a460019050610121565b600090505b92915050565b600080600084815260200190815260200160002060000160008373ffffffffffffffffffffffffffffffffffffffff1673ffffffffffffffffffffffffffffffffffffffff16815260200190815260200160002060009054906101000a900460ff16905092915050565b600033905090565b611201806101a86000396000f3fe608060405234801561001057600080fd5b50600436106101165760003560e01c806391d14854116100a2578063cc8f079511610071578063cc8f0795146102cb578063d5391393146102e7578063d547741f14610305578063e29874b714610321578063e8d5a48a1461033d57610116565b806391d14854146102435780639eefdd8714610273578063a217fddf1461028f578063b9ca4821146102ad57610116565b80632f2ff15d116100e95780632f2ff15d146101b557806336568abe146101d15780633b260563146101ed5780635036258b1461020b5780635f9e640f1461022757610116565b806301ffc9a71461011b57806306a85f0f1461014b5780632365a35e14610169578063248a9ca314610185575b600080fd5b61013560048036038101906101309190610c5b565b61036d565b6040516101429190610ca3565b60405180910390f35b6101536103e7565b6040516101609190610cd7565b60405180910390f35b610183600480360381019061017e9190610d50565b61040b565b005b61019f600480360381019061019a9190610da9565b610484565b6040516101ac9190610cd7565b60405180910390f35b6101cf60048036038101906101ca9190610dd6565b6104a3565b005b6101eb60048036038101906101e69190610dd6565b6104c5565b005b6101f5610540565b6040516102029190610cd7565b60405180910390f35b61022560048036038101906102209190610d50565b610564565b005b610241600480360381019061023c9190610d50565b610602565b005b61025d60048036038101906102589190610dd6565b61067b565b60405161026a9190610ca3565b60405180910390f35b61028d60048036038101906102889190610d50565b6106e5565b005b61029761078b565b6040516102a49190610cd7565b60405180910390f35b6102b5610792565b6040516102c29190610cd7565b60405180910390f35b6102e560048036038101906102e09190610d50565b6107b6565b005b6102ef61082f565b6040516102fc9190610cd7565b60405180910390f35b61031f600480360381019061031a9190610dd6565b610853565b005b61033b60048036038101906103369190610d50565b610875565b005b61035760048036038101906103529190610d50565b6108ee565b6040516103649190610ca3565b60405180910390f35b60007f7965db0b000000000000000000000000000000000000000000000000000000007bffffffffffffffffffffffffffffffffffffffffffffffffffffffff1916827bffffffffffffffffffffffffffffffffffffffffffffffffffffffff191614806103e057506103df82610944565b5b9050919050565b7f92de27771f92d6942691d73358b3a4673e4880de8356f8f2cf452be87e02d36381565b6104186000801b3361067b565b610457576040517f08c379a000000000000000000000000000000000000000000000000000000000815260040161044e90610e99565b60405180910390fd5b6104817fda77f6231fec42b4d28b0cb4169b6957269348cad2424fc7119fb6ab7cf4f0f0826104a3565b50565b6000806000838152602001908152602001600020600101549050919050565b6104ac82610484565b6104b5816109ae565b6104bf83836109c2565b50505050565b6104cd610ab3565b73ffffffffffffffffffffffffffffffffffffffff168173ffffffffffffffffffffffffffffffffffffffff1614610531576040517f6697b23200000000000000000000000000000000000000000000000000000000815260040160405180910390fd5b61053b8282610abb565b505050565b7fda77f6231fec42b4d28b0cb4169b6957269348cad2424fc7119fb6ab7cf4f0f081565b6105716000801b3361067b565b6105b0576040517f08c379a00000000000000000000000000000000000000000000000000000000081526004016105a790610f2b565b60405180910390fd5b600160008273ffffffffffffffffffffffffffffffffffffffff1673ffffffffffffffffffffffffffffffffffffffff16815260200190815260200160002060006101000a81549060ff021916905550565b61060f6000801b3361067b565b61064e576040517f08c379a000000000000000000000000000000000000000000000000000000000815260040161064590610fbd565b60405180910390fd5b6106787f9f2df0fed2c77648de5860a4cc508cd0818c85b8b8a1ab4ceeef8d981c8956a6826104a3565b50565b600080600084815260200190815260200160002060000160008373ffffffffffffffffffffffffffffffffffffffff1673ffffffffffffffffffffffffffffffffffffffff16815260200190815260200160002060009054906101000a900460ff16905092915050565b6106f26000801b3361067b565b610731576040517f08c379a00000000000000000000000000000000000000000000000000000000081526004016107289061104f565b60405180910390fd5b60018060008373ffffffffffffffffffffffffffffffffffffffff1673ffffffffffffffffffffffffffffffffffffffff16815260200190815260200160002060006101000a81548160ff02191690831515021790555050565b6000801b81565b7f95879078ac5f9ef2655935a8a313c87a55cd3739fa85c7b76890b7dbcd26b36b81565b6107c36000801b3361067b565b610802576040517f08c379a00000000000000000000000000000000000000000000000000000000081526004016107f9906110e1565b60405180910390fd5b61082c7f92de27771f92d6942691d73358b3a4673e4880de8356f8f2cf452be87e02d363826104a3565b50565b7f9f2df0fed2c77648de5860a4cc508cd0818c85b8b8a1ab4ceeef8d981c8956a681565b61085c82610484565b610865816109ae565b61086f8383610abb565b50505050565b6108826000801b3361067b565b6108c1576040517f08c379a00000000000000000000000000000000000000000000000000000000081526004016108b890611173565b60405180910390fd5b6108eb7f95879078ac5f9ef2655935a8a313c87a55cd3739fa85c7b76890b7dbcd26b36b826104a3565b50565b6000600160008373ffffffffffffffffffffffffffffffffffffffff1673ffffffffffffffffffffffffffffffffffffffff16815260200190815260200160002060009054906101000a900460ff169050919050565b60007f01ffc9a7000000000000000000000000000000000000000000000000000000007bffffffffffffffffffffffffffffffffffffffffffffffffffffffff1916827bffffffffffffffffffffffffffffffffffffffffffffffffffffffff1916149050919050565b6109bf816109ba610ab3565b610bad565b50565b60006109ce838361067b565b610aa857600160008085815260200190815260200160002060000160008473ffffffffffffffffffffffffffffffffffffffff1673ffffffffffffffffffffffffffffffffffffffff16815260200190815260200160002060006101000a81548160ff021916908315150217905550610a45610ab3565b73ffffffffffffffffffffffffffffffffffffffff168273ffffffffffffffffffffffffffffffffffffffff16847f2f8788117e7eff1d82e926ec794901d17c78024a50270940304540a733656f0d60405160405180910390a460019050610aad565b600090505b92915050565b600033905090565b6000610ac7838361067b565b15610ba257600080600085815260200190815260200160002060000160008473ffffffffffffffffffffffffffffffffffffffff1673ffffffffffffffffffffffffffffffffffffffff16815260200190815260200160002060006101000a81548160ff021916908315150217905550610b3f610ab3565b73ffffffffffffffffffffffffffffffffffffffff168273ffffffffffffffffffffffffffffffffffffffff16847ff6391f5c32d9c69d2a47ea670b442974b53935d1edc7fd64eb21e047a839171b60405160405180910390a460019050610ba7565b600090505b92915050565b610bb7828261067b565b610bfa5780826040517fe2517d3f000000000000000000000000000000000000000000000000000000008152600401610bf19291906111a2565b60405180910390fd5b5050565b600080fd5b60007fffffffff0000000000000000000000000000000000000000000000000000000082169050919050565b610c3881610c03565b8114610c4357600080fd5b50565b600081359050610c5581610c2f565b92915050565b600060208284031215610c7157610c70610bfe565b5b6000610c7f84828501610c46565b91505092915050565b60008115159050919050565b610c9d81610c88565b82525050565b6000602082019050610cb86000830184610c94565b92915050565b6000819050919050565b610cd181610cbe565b82525050565b6000602082019050610cec6000830184610cc8565b92915050565b600073ffffffffffffffffffffffffffffffffffffffff82169050919050565b6000610d1d82610cf2565b9050919050565b610d2d81610d12565b8114610d3857600080fd5b50565b600081359050610d4a81610d24565b92915050565b600060208284031215610d6657610d65610bfe565b5b6000610d7484828501610d3b565b91505092915050565b610d8681610cbe565b8114610d9157600080fd5b50565b600081359050610da381610d7d565b92915050565b600060208284031215610dbf57610dbe610bfe565b5b6000610dcd84828501610d94565b91505092915050565b60008060408385031215610ded57610dec610bfe565b5b6000610dfb85828601610d94565b9250506020610e0c85828601610d3b565b9150509250929050565b600082825260208201905092915050565b7f4d75737420686176652061646d696e20726f6c6520746f2061737369676e206160008201527f756374696f6e20706c6163656d656e7420726f6c650000000000000000000000602082015250565b6000610e83603583610e16565b9150610e8e82610e27565b604082019050919050565b60006020820190508181036000830152610eb281610e76565b9050919050565b7f4d75737420686176652061646d696e20726f6c6520746f2064697361626c652060008201527f6164647265737300000000000000000000000000000000000000000000000000602082015250565b6000610f15602783610e16565b9150610f2082610eb9565b604082019050919050565b60006020820190508181036000830152610f4481610f08565b9050919050565b7f4d75737420686176652061646d696e20726f6c6520746f2061737369676e206d60008201527f696e74657220726f6c6500000000000000000000000000000000000000000000602082015250565b6000610fa7602a83610e16565b9150610fb282610f4b565b604082019050919050565b60006020820190508181036000830152610fd681610f9a565b9050919050565b7f4d75737420686176652061646d696e20726f6c6520746f20656e61626c65206160008201527f6464726573730000000000000000000000000000000000000000000000000000602082015250565b6000611039602683610e16565b915061104482610fdd565b604082019050919050565b600060208201905081810360008301526110688161102c565b9050919050565b7f4d75737420686176652061646d696e20726f6c6520746f2061737369676e206660008201527f7265657a657220726f6c65000000000000000000000000000000000000000000602082015250565b60006110cb602b83610e16565b91506110d68261106f565b604082019050919050565b600060208201905081810360008301526110fa816110be565b9050919050565b7f4d75737420686176652061646d696e20726f6c6520746f2061737369676e206460008201527f697265637420706c6163656d656e7420726f6c65000000000000000000000000602082015250565b600061115d603483610e16565b915061116882611101565b604082019050919050565b6000602082019050818103600083015261118c81611150565b9050919050565b61119c81610d12565b82525050565b60006040820190506111b76000830185611193565b6111c46020830184610cc8565b939250505056fea2646970667358221220af863b43a06ef15c3792e67344a5f93936a885c9bb4af0045e5e378775bb5c8664736f6c63430008140033",
  "linkReferences": {},
  "deployedLinkReferences": {}
}