{
  "_format": "hh-sol-artifact-1",
  "contractName": "TPFt",
  "sourceName": "contracts/drex/TPFt.sol",
  "abi": [
    {
      "inputs": [],
      "stateMutability": "nonpayable",
      "type": "constructor"
    },
    {
      "inputs": [],
      "name": "AccessControlBadConfirmation",
      "type": "error"
    },
    {
      "inputs": [
        {
          "internalType": "address",
          "name": "account",
          "type": "address"
        },
        {
          "internalType": "bytes32",
          "name": "neededRole",
          "type": "bytes32"
        }
      ],
      "name": "AccessControlUnauthorizedAccount",
      "type": "error"
    },
    {
      "inputs": [
        {
          "internalType": "address",
          "name": "sender",
          "type": "address"
        },
        {
          "internalType": "uint256",
          "name": "balance",
          "type": "uint256"
        },
        {
          "internalType": "uint256",
          "name": "needed",
          "type": "uint256"
        },
        {
          "internalType": "uint256",
          "name": "tokenId",
          "type": "uint256"
        }
      ],
      "name": "ERC1155InsufficientBalance",
      "type": "error"
    },
    {
      "inputs": [
        {
          "internalType": "address",
          "name": "approver",
          "type": "address"
        }
      ],
      "name": "ERC1155InvalidApprover",
      "type": "error"
    },
    {
      "inputs": [
        {
          "internalType": "uint256",
          "name": "idsLength",
          "type": "uint256"
        },
        {
          "internalType": "uint256",
          "name": "valuesLength",
          "type": "uint256"
        }
      ],
      "name": "ERC1155InvalidArrayLength",
      "type": "error"
    },
    {
      "inputs": [
        {
          "internalType": "address",
          "name": "operator",
          "type": "address"
        }
      ],
      "name": "ERC1155InvalidOperator",
      "type": "error"
    },
    {
      "inputs": [
        {
          "internalType": "address",
          "name": "receiver",
          "type": "address"
        }
      ],
      "name": "ERC1155InvalidReceiver",
      "type": "error"
    },
    {
      "inputs": [
        {
          "internalType": "address",
          "name": "sender",
          "type": "address"
        }
      ],
      "name": "ERC1155InvalidSender",
      "type": "error"
    },
    {
      "inputs": [
        {
          "internalType": "address",
          "name": "operator",
          "type": "address"
        },
        {
          "internalType": "address",
          "name": "owner",
          "type": "address"
        }
      ],
      "name": "ERC1155MissingApprovalForAll",
      "type": "error"
    },
    {
      "inputs": [],
      "name": "EnforcedPause",
      "type": "error"
    },
    {
      "inputs": [],
      "name": "ExpectedPause",
      "type": "error"
    },
    {
      "anonymous": false,
      "inputs": [
        {
          "indexed": true,
          "internalType": "address",
          "name": "account",
          "type": "address"
        },
        {
          "indexed": true,
          "internalType": "address",
          "name": "operator",
          "type": "address"
        },
        {
          "indexed": false,
          "internalType": "bool",
          "name": "approved",
          "type": "bool"
        }
      ],
      "name": "ApprovalForAll",
      "type": "event"
    },
    {
      "anonymous": false,
      "inputs": [
        {
          "indexed": false,
          "internalType": "uint256",
          "name": "id",
          "type": "uint256"
        },
        {
          "components": [
            {
              "internalType": "string",
              "name": "acronym",
              "type": "string"
            },
            {
              "internalType": "string",
              "name": "code",
              "type": "string"
            },
            {
              "internalType": "uint256",
              "name": "maturityDate",
              "type": "uint256"
            }
          ],
          "indexed": false,
          "internalType": "struct ITPFt.TPFtData",
          "name": "tpftData",
          "type": "tuple"
        }
      ],
      "name": "CreatedTPFt",
      "type": "event"
    },
    {
      "anonymous": false,
      "inputs": [
        {
          "indexed": true,
          "internalType": "address",
          "name": "from",
          "type": "address"
        },
        {
          "indexed": false,
          "internalType": "uint256",
          "name": "balance",
          "type": "uint256"
        }
      ],
      "name": "FrozenBalance",
      "type": "event"
    },
    {
      "anonymous": false,
      "inputs": [
        {
          "indexed": false,
          "internalType": "address",
          "name": "account",
          "type": "address"
        }
      ],
      "name": "Paused",
      "type": "event"
    },
    {
      "anonymous": false,
      "inputs": [
        {
          "indexed": true,
          "internalType": "bytes32",
          "name": "role",
          "type": "bytes32"
        },
        {
          "indexed": true,
          "internalType": "bytes32",
          "name": "previousAdminRole",
          "type": "bytes32"
        },
        {
          "indexed": true,
          "internalType": "bytes32",
          "name": "newAdminRole",
          "type": "bytes32"
        }
      ],
      "name": "RoleAdminChanged",
      "type": "event"
    },
    {
      "anonymous": false,
      "inputs": [
        {
          "indexed": true,
          "internalType": "bytes32",
          "name": "role",
          "type": "bytes32"
        },
        {
          "indexed": true,
          "internalType": "address",
          "name": "account",
          "type": "address"
        },
        {
          "indexed": true,
          "internalType": "address",
          "name": "sender",
          "type": "address"
        }
      ],
      "name": "RoleGranted",
      "type": "event"
    },
    {
      "anonymous": false,
      "inputs": [
        {
          "indexed": true,
          "internalType": "bytes32",
          "name": "role",
          "type": "bytes32"
        },
        {
          "indexed": true,
          "internalType": "address",
          "name": "account",
          "type": "address"
        },
        {
          "indexed": true,
          "internalType": "address",
          "name": "sender",
          "type": "address"
        }
      ],
      "name": "RoleRevoked",
      "type": "event"
    },
    {
      "anonymous": false,
      "inputs": [
        {
          "indexed": true,
          "internalType": "address",
          "name": "operator",
          "type": "address"
        },
        {
          "indexed": true,
          "internalType": "address",
          "name": "from",
          "type": "address"
        },
        {
          "indexed": true,
          "internalType": "address",
          "name": "to",
          "type": "address"
        },
        {
          "indexed": false,
          "internalType": "uint256[]",
          "name": "ids",
          "type": "uint256[]"
        },
        {
          "indexed": false,
          "internalType": "uint256[]",
          "name": "values",
          "type": "uint256[]"
        }
      ],
      "name": "TransferBatch",
      "type": "event"
    },
    {
      "anonymous": false,
      "inputs": [
        {
          "indexed": true,
          "internalType": "address",
          "name": "operator",
          "type": "address"
        },
        {
          "indexed": true,
          "internalType": "address",
          "name": "from",
          "type": "address"
        },
        {
          "indexed": true,
          "internalType": "address",
          "name": "to",
          "type": "address"
        },
        {
          "indexed": false,
          "internalType": "uint256",
          "name": "id",
          "type": "uint256"
        },
        {
          "indexed": false,
          "internalType": "uint256",
          "name": "value",
          "type": "uint256"
        }
      ],
      "name": "TransferSingle",
      "type": "event"
    },
    {
      "anonymous": false,
      "inputs": [
        {
          "indexed": false,
          "internalType": "string",
          "name": "value",
          "type": "string"
        },
        {
          "indexed": true,
          "internalType": "uint256",
          "name": "id",
          "type": "uint256"
        }
      ],
      "name": "URI",
      "type": "event"
    },
    {
      "anonymous": false,
      "inputs": [
        {
          "indexed": false,
          "internalType": "address",
          "name": "account",
          "type": "address"
        }
      ],
      "name": "Unpaused",
      "type": "event"
    },
    {
      "inputs": [],
      "name": "AUCTION_PLACEMENT_ROLE",
      "outputs": [
        {
          "internalType": "bytes32",
          "name": "",
          "type": "bytes32"
        }
      ],
      "stateMutability": "view",
      "type": "function"
    },
    {
      "inputs": [],
      "name": "DEFAULT_ADMIN_ROLE",
      "outputs": [
        {
          "internalType": "bytes32",
          "name": "",
          "type": "bytes32"
        }
      ],
      "stateMutability": "view",
      "type": "function"
    },
    {
      "inputs": [],
      "name": "DIRECT_PLACEMENT_ROLE",
      "outputs": [
        {
          "internalType": "bytes32",
          "name": "",
          "type": "bytes32"
        }
      ],
      "stateMutability": "view",
      "type": "function"
    },
    {
      "inputs": [],
      "name": "FREEZER_ROLE",
      "outputs": [
        {
          "internalType": "bytes32",
          "name": "",
          "type": "bytes32"
        }
      ],
      "stateMutability": "view",
      "type": "function"
    },
    {
      "inputs": [],
      "name": "MINTER_ROLE",
      "outputs": [
        {
          "internalType": "bytes32",
          "name": "",
          "type": "bytes32"
        }
      ],
      "stateMutability": "view",
      "type": "function"
    },
    {
      "inputs": [
        {
          "internalType": "address",
          "name": "member",
          "type": "address"
        }
      ],
      "name": "allowAuctionPlacement",
      "outputs": [],
      "stateMutability": "nonpayable",
      "type": "function"
    },
    {
      "inputs": [
        {
          "internalType": "address",
          "name": "member",
          "type": "address"
        }
      ],
      "name": "allowDirectPlacement",
      "outputs": [],
      "stateMutability": "nonpayable",
      "type": "function"
    },
    {
      "inputs": [
        {
          "internalType": "address",
          "name": "member",
          "type": "address"
        }
      ],
      "name": "allowFreezingPlacement",
      "outputs": [],
      "stateMutability": "nonpayable",
      "type": "function"
    },
    {
      "inputs": [
        {
          "internalType": "address",
          "name": "member",
          "type": "address"
        }
      ],
      "name": "allowTPFtMint",
      "outputs": [],
      "stateMutability": "nonpayable",
      "type": "function"
    },
    {
      "inputs": [
        {
          "internalType": "address",
          "name": "account",
          "type": "address"
        },
        {
          "internalType": "uint256",
          "name": "id",
          "type": "uint256"
        }
      ],
      "name": "balanceOf",
      "outputs": [
        {
          "internalType": "uint256",
          "name": "",
          "type": "uint256"
        }
      ],
      "stateMutability": "view",
      "type": "function"
    },
    {
      "inputs": [
        {
          "internalType": "address[]",
          "name": "accounts",
          "type": "address[]"
        },
        {
          "internalType": "uint256[]",
          "name": "ids",
          "type": "uint256[]"
        }
      ],
      "name": "balanceOfBatch",
      "outputs": [
        {
          "internalType": "uint256[]",
          "name": "",
          "type": "uint256[]"
        }
      ],
      "stateMutability": "view",
      "type": "function"
    },
    {
      "inputs": [
        {
          "components": [
            {
              "internalType": "string",
              "name": "acronym",
              "type": "string"
            },
            {
              "internalType": "string",
              "name": "code",
              "type": "string"
            },
            {
              "internalType": "uint256",
              "name": "maturityDate",
              "type": "uint256"
            }
          ],
          "internalType": "struct ITPFt.TPFtData",
          "name": "tpftData",
          "type": "tuple"
        }
      ],
      "name": "createTPFt",
      "outputs": [],
      "stateMutability": "nonpayable",
      "type": "function"
    },
    {
      "inputs": [
        {
          "internalType": "address",
          "name": "from",
          "type": "address"
        },
        {
          "components": [
            {
              "internalType": "string",
              "name": "acronym",
              "type": "string"
            },
            {
              "internalType": "string",
              "name": "code",
              "type": "string"
            },
            {
              "internalType": "uint256",
              "name": "maturityDate",
              "type": "uint256"
            }
          ],
          "internalType": "struct ITPFt.TPFtData",
          "name": "tpftData",
          "type": "tuple"
        },
        {
          "internalType": "uint256",
          "name": "tpftAmount",
          "type": "uint256"
        }
      ],
      "name": "decreaseFrozenBalance",
      "outputs": [],
      "stateMutability": "nonpayable",
      "type": "function"
    },
    {
      "inputs": [
        {
          "internalType": "address",
          "name": "from",
          "type": "address"
        },
        {
          "internalType": "address",
          "name": "to",
          "type": "address"
        },
        {
          "components": [
            {
              "internalType": "string",
              "name": "acronym",
              "type": "string"
            },
            {
              "internalType": "string",
              "name": "code",
              "type": "string"
            },
            {
              "internalType": "uint256",
              "name": "maturityDate",
              "type": "uint256"
            }
          ],
          "internalType": "struct ITPFt.TPFtData",
          "name": "tpftData",
          "type": "tuple"
        },
        {
          "internalType": "uint256",
          "name": "tpftAmount",
          "type": "uint256"
        }
      ],
      "name": "directPlacement",
      "outputs": [],
      "stateMutability": "nonpayable",
      "type": "function"
    },
    {
      "inputs": [
        {
          "internalType": "address",
          "name": "member",
          "type": "address"
        }
      ],
      "name": "disableAddress",
      "outputs": [],
      "stateMutability": "nonpayable",
      "type": "function"
    },
    {
      "inputs": [
        {
          "internalType": "address",
          "name": "member",
          "type": "address"
        }
      ],
      "name": "enableAddress",
      "outputs": [],
      "stateMutability": "nonpayable",
      "type": "function"
    },
    {
      "inputs": [
        {
          "internalType": "bytes32",
          "name": "role",
          "type": "bytes32"
        }
      ],
      "name": "getRoleAdmin",
      "outputs": [
        {
          "internalType": "bytes32",
          "name": "",
          "type": "bytes32"
        }
      ],
      "stateMutability": "view",
      "type": "function"
    },
    {
      "inputs": [
        {
          "components": [
            {
              "internalType": "string",
              "name": "acronym",
              "type": "string"
            },
            {
              "internalType": "string",
              "name": "code",
              "type": "string"
            },
            {
              "internalType": "uint256",
              "name": "maturityDate",
              "type": "uint256"
            }
          ],
          "internalType": "struct ITPFt.TPFtData",
          "name": "tpftData",
          "type": "tuple"
        }
      ],
      "name": "getTPFtId",
      "outputs": [
        {
          "internalType": "uint256",
          "name": "",
          "type": "uint256"
        }
      ],
      "stateMutability": "view",
      "type": "function"
    },
    {
      "inputs": [
        {
          "internalType": "bytes32",
          "name": "role",
          "type": "bytes32"
        },
        {
          "internalType": "address",
          "name": "account",
          "type": "address"
        }
      ],
      "name": "grantRole",
      "outputs": [],
      "stateMutability": "nonpayable",
      "type": "function"
    },
    {
      "inputs": [
        {
          "internalType": "bytes32",
          "name": "role",
          "type": "bytes32"
        },
        {
          "internalType": "address",
          "name": "account",
          "type": "address"
        }
      ],
      "name": "hasRole",
      "outputs": [
        {
          "internalType": "bool",
          "name": "",
          "type": "bool"
        }
      ],
      "stateMutability": "view",
      "type": "function"
    },
    {
      "inputs": [
        {
          "internalType": "address",
          "name": "from",
          "type": "address"
        },
        {
          "components": [
            {
              "internalType": "string",
              "name": "acronym",
              "type": "string"
            },
            {
              "internalType": "string",
              "name": "code",
              "type": "string"
            },
            {
              "internalType": "uint256",
              "name": "maturityDate",
              "type": "uint256"
            }
          ],
          "internalType": "struct ITPFt.TPFtData",
          "name": "tpftData",
          "type": "tuple"
        },
        {
          "internalType": "uint256",
          "name": "tpftAmount",
          "type": "uint256"
        }
      ],
      "name": "increaseFrozenBalance",
      "outputs": [],
      "stateMutability": "nonpayable",
      "type": "function"
    },
    {
      "inputs": [
        {
          "internalType": "address",
          "name": "account",
          "type": "address"
        },
        {
          "internalType": "address",
          "name": "operator",
          "type": "address"
        }
      ],
      "name": "isApprovedForAll",
      "outputs": [
        {
          "internalType": "bool",
          "name": "",
          "type": "bool"
        }
      ],
      "stateMutability": "view",
      "type": "function"
    },
    {
      "inputs": [
        {
          "internalType": "address",
          "name": "member",
          "type": "address"
        }
      ],
      "name": "isEnabledAddress",
      "outputs": [
        {
          "internalType": "bool",
          "name": "",
          "type": "bool"
        }
      ],
      "stateMutability": "view",
      "type": "function"
    },
    {
      "inputs": [
        {
          "internalType": "address",
          "name": "receiverAddress",
          "type": "address"
        },
        {
          "components": [
            {
              "internalType": "string",
              "name": "acronym",
              "type": "string"
            },
            {
              "internalType": "string",
              "name": "code",
              "type": "string"
            },
            {
              "internalType": "uint256",
              "name": "maturityDate",
              "type": "uint256"
            }
          ],
          "internalType": "struct ITPFt.TPFtData",
          "name": "tpftData",
          "type": "tuple"
        },
        {
          "internalType": "uint256",
          "name": "tpftAmount",
          "type": "uint256"
        }
      ],
      "name": "mint",
      "outputs": [],
      "stateMutability": "nonpayable",
      "type": "function"
    },
    {
      "inputs": [],
      "name": "pause",
      "outputs": [],
      "stateMutability": "nonpayable",
      "type": "function"
    },
    {
      "inputs": [],
      "name": "paused",
      "outputs": [
        {
          "internalType": "bool",
          "name": "",
          "type": "bool"
        }
      ],
      "stateMutability": "view",
      "type": "function"
    },
    {
      "inputs": [
        {
          "internalType": "bytes32",
          "name": "role",
          "type": "bytes32"
        },
        {
          "internalType": "address",
          "name": "callerConfirmation",
          "type": "address"
        }
      ],
      "name": "renounceRole",
      "outputs": [],
      "stateMutability": "nonpayable",
      "type": "function"
    },
    {
      "inputs": [
        {
          "internalType": "bytes32",
          "name": "role",
          "type": "bytes32"
        },
        {
          "internalType": "address",
          "name": "account",
          "type": "address"
        }
      ],
      "name": "revokeRole",
      "outputs": [],
      "stateMutability": "nonpayable",
      "type": "function"
    },
    {
      "inputs": [
        {
          "internalType": "address",
          "name": "from",
          "type": "address"
        },
        {
          "internalType": "address",
          "name": "to",
          "type": "address"
        },
        {
          "internalType": "uint256[]",
          "name": "ids",
          "type": "uint256[]"
        },
        {
          "internalType": "uint256[]",
          "name": "values",
          "type": "uint256[]"
        },
        {
          "internalType": "bytes",
          "name": "data",
          "type": "bytes"
        }
      ],
      "name": "safeBatchTransferFrom",
      "outputs": [],
      "stateMutability": "nonpayable",
      "type": "function"
    },
    {
      "inputs": [
        {
          "internalType": "address",
          "name": "from",
          "type": "address"
        },
        {
          "internalType": "address",
          "name": "to",
          "type": "address"
        },
        {
          "internalType": "uint256",
          "name": "id",
          "type": "uint256"
        },
        {
          "internalType": "uint256",
          "name": "value",
          "type": "uint256"
        },
        {
          "internalType": "bytes",
          "name": "data",
          "type": "bytes"
        }
      ],
      "name": "safeTransferFrom",
      "outputs": [],
      "stateMutability": "nonpayable",
      "type": "function"
    },
    {
      "inputs": [
        {
          "internalType": "address",
          "name": "operator",
          "type": "address"
        },
        {
          "internalType": "bool",
          "name": "approved",
          "type": "bool"
        }
      ],
      "name": "setApprovalForAll",
      "outputs": [],
      "stateMutability": "nonpayable",
      "type": "function"
    },
    {
      "inputs": [
        {
          "internalType": "bytes4",
          "name": "interfaceId",
          "type": "bytes4"
        }
      ],
      "name": "supportsInterface",
      "outputs": [
        {
          "internalType": "bool",
          "name": "",
          "type": "bool"
        }
      ],
      "stateMutability": "view",
      "type": "function"
    },
    {
      "inputs": [],
      "name": "unpause",
      "outputs": [],
      "stateMutability": "nonpayable",
      "type": "function"
    },
    {
      "inputs": [
        {
          "internalType": "uint256",
          "name": "",
          "type": "uint256"
        }
      ],
      "name": "uri",
      "outputs": [
        {
          "internalType": "string",
          "name": "",
          "type": "string"
        }
      ],
      "stateMutability": "view",
      "type": "function"
    }
  ],
  "bytecode": "0x608060405260016008553480156200001657600080fd5b50604051806060016040528060258152602001620044086025913962000042816200009060201b60201c565b50620000586000801b33620000a560201b60201c565b506000600560006101000a81548160ff021916908315150217905550620000896000801b33620000a560201b60201c565b506200057d565b8060029081620000a1919062000496565b5050565b6000620000b98383620001a960201b60201c565b6200019e5760016003600085815260200190815260200160002060000160008473ffffffffffffffffffffffffffffffffffffffff1673ffffffffffffffffffffffffffffffffffffffff16815260200190815260200160002060006101000a81548160ff0219169083151502179055506200013a6200021460201b60201c565b73ffffffffffffffffffffffffffffffffffffffff168273ffffffffffffffffffffffffffffffffffffffff16847f2f8788117e7eff1d82e926ec794901d17c78024a50270940304540a733656f0d60405160405180910390a460019050620001a3565b600090505b92915050565b60006003600084815260200190815260200160002060000160008373ffffffffffffffffffffffffffffffffffffffff1673ffffffffffffffffffffffffffffffffffffffff16815260200190815260200160002060009054906101000a900460ff16905092915050565b600033905090565b600081519050919050565b7f4e487b7100000000000000000000000000000000000000000000000000000000600052604160045260246000fd5b7f4e487b7100000000000000000000000000000000000000000000000000000000600052602260045260246000fd5b600060028204905060018216806200029e57607f821691505b602082108103620002b457620002b362000256565b5b50919050565b60008190508160005260206000209050919050565b60006020601f8301049050919050565b600082821b905092915050565b6000600883026200031e7fffffffffffffffffffffffffffffffffffffffffffffffffffffffffffffffff82620002df565b6200032a8683620002df565b95508019841693508086168417925050509392505050565b6000819050919050565b6000819050919050565b600062000377620003716200036b8462000342565b6200034c565b62000342565b9050919050565b6000819050919050565b620003938362000356565b620003ab620003a2826200037e565b848454620002ec565b825550505050565b600090565b620003c2620003b3565b620003cf81848462000388565b505050565b5b81811015620003f757620003eb600082620003b8565b600181019050620003d5565b5050565b601f82111562000446576200041081620002ba565b6200041b84620002cf565b810160208510156200042b578190505b620004436200043a85620002cf565b830182620003d4565b50505b505050565b600082821c905092915050565b60006200046b600019846008026200044b565b1980831691505092915050565b600062000486838362000458565b9150826002028217905092915050565b620004a1826200021c565b67ffffffffffffffff811115620004bd57620004bc62000227565b5b620004c9825462000285565b620004d6828285620003fb565b600060209050601f8311600181146200050e5760008415620004f9578287015190505b62000505858262000478565b86555062000575565b601f1984166200051e86620002ba565b60005b82811015620005485784890151825560018201915060208501945060208101905062000521565b8683101562000568578489015162000564601f89168262000458565b8355505b6001600288020188555050505b505050505050565b613e7b806200058d6000396000f3fe608060405234801561001057600080fd5b50600436106102055760003560e01c806370093bb01161011a578063cc8f0795116100ad578063d68756a81161007c578063d68756a8146105aa578063e29874b7146105c6578063e8d5a48a146105e2578063e985e9c514610612578063f242432a1461064257610205565b8063cc8f079514610538578063d2bd0e1214610554578063d539139314610570578063d547741f1461058e57610205565b80639eefdd87116100e95780639eefdd87146104c4578063a217fddf146104e0578063a22cb465146104fe578063b9ca48211461051a57610205565b806370093bb01461043e5780638456cb591461045a57806386e36b1b1461046457806391d148541461049457610205565b80632f2ff15d1161019d578063433e14891161016c578063433e14891461039c5780634e1273f4146103b85780635036258b146103e85780635c975abb146104045780635f9e640f1461042257610205565b80632f2ff15d1461033c57806336568abe146103585780633b260563146103745780633f4ba83a1461039257610205565b80631a71a44c116101d95780631a71a44c146102b85780632365a35e146102d4578063248a9ca3146102f05780632eb2c2d61461032057610205565b8062fdd58e1461020a57806301ffc9a71461023a57806306a85f0f1461026a5780630e89341c14610288575b600080fd5b610224600480360381019061021f91906128a0565b61065e565b60405161023191906128ef565b60405180910390f35b610254600480360381019061024f9190612962565b6106b8565b60405161026191906129aa565b60405180910390f35b6102726106ca565b60405161027f91906129de565b60405180910390f35b6102a2600480360381019061029d91906129f9565b6106ee565b6040516102af9190612ab6565b60405180910390f35b6102d260048036038101906102cd9190612cb3565b610782565b005b6102ee60048036038101906102e99190612d22565b610902565b005b61030a60048036038101906103059190612d7b565b61097b565b60405161031791906129de565b60405180910390f35b61033a60048036038101906103359190612f11565b61099b565b005b61035660048036038101906103519190612fe0565b610a43565b005b610372600480360381019061036d9190612fe0565b610a65565b005b61037c610ae0565b60405161038991906129de565b60405180910390f35b61039a610b04565b005b6103b660048036038101906103b19190612cb3565b610b1c565b005b6103d260048036038101906103cd91906130e3565b610d1e565b6040516103df9190613219565b60405180910390f35b61040260048036038101906103fd9190612d22565b610e2d565b005b61040c610ecb565b60405161041991906129aa565b60405180910390f35b61043c60048036038101906104379190612d22565b610ee2565b005b6104586004803603810190610453919061323b565b610f5b565b005b610462610ff9565b005b61047e600480360381019061047991906132be565b611011565b60405161048b91906128ef565b60405180910390f35b6104ae60048036038101906104a99190612fe0565b611023565b6040516104bb91906129aa565b60405180910390f35b6104de60048036038101906104d99190612d22565b61108e565b005b6104e8611135565b6040516104f591906129de565b60405180910390f35b61051860048036038101906105139190613333565b61113c565b005b610522611152565b60405161052f91906129de565b60405180910390f35b610552600480360381019061054d9190612d22565b611176565b005b61056e600480360381019061056991906132be565b6111ef565b005b610578611328565b60405161058591906129de565b60405180910390f35b6105a860048036038101906105a39190612fe0565b61134c565b005b6105c460048036038101906105bf9190612cb3565b61136e565b005b6105e060048036038101906105db9190612d22565b61140a565b005b6105fc60048036038101906105f79190612d22565b611483565b60405161060991906129aa565b60405180910390f35b61062c60048036038101906106279190613373565b6114d9565b60405161063991906129aa565b60405180910390f35b61065c600480360381019061065791906133b3565b61156d565b005b600080600083815260200190815260200160002060008473ffffffffffffffffffffffffffffffffffffffff1673ffffffffffffffffffffffffffffffffffffffff16815260200190815260200160002054905092915050565b60006106c382611615565b9050919050565b7f92de27771f92d6942691d73358b3a4673e4880de8356f8f2cf452be87e02d36381565b6060600280546106fd90613479565b80601f016020809104026020016040519081016040528092919081815260200182805461072990613479565b80156107765780601f1061074b57610100808354040283529160200191610776565b820191906000526020600020905b81548152906001019060200180831161075957829003601f168201915b50505050509050919050565b7f92de27771f92d6942691d73358b3a4673e4880de8356f8f2cf452be87e02d3636107ac8161168f565b60006107b7846116a3565b9050600081036107fc576040517f08c379a00000000000000000000000000000000000000000000000000000000081526004016107f3906134f6565b60405180910390fd5b82600660008773ffffffffffffffffffffffffffffffffffffffff1673ffffffffffffffffffffffffffffffffffffffff168152602001908152602001600020600082825461084b9190613545565b9250508190555061086e853083866040518060200160405280600081525061156d565b8473ffffffffffffffffffffffffffffffffffffffff167fd2dc74064ce9979876047afc7922931592038bce8a7fbaf28417799c138e4e4d600660008873ffffffffffffffffffffffffffffffffffffffff1673ffffffffffffffffffffffffffffffffffffffff168152602001908152602001600020546040516108f391906128ef565b60405180910390a25050505050565b61090f6000801b33611023565b61094e576040517f08c379a0000000000000000000000000000000000000000000000000000000008152600401610945906135eb565b60405180910390fd5b6109787fda77f6231fec42b4d28b0cb4169b6957269348cad2424fc7119fb6ab7cf4f0f082610a43565b50565b600060036000838152602001908152602001600020600101549050919050565b60006109a56116fb565b90508073ffffffffffffffffffffffffffffffffffffffff168673ffffffffffffffffffffffffffffffffffffffff16141580156109ea57506109e886826114d9565b155b15610a2e5780866040517fe237d922000000000000000000000000000000000000000000000000000000008152600401610a2592919061361a565b60405180910390fd5b610a3b8686868686611703565b505050505050565b610a4c8261097b565b610a558161168f565b610a5f83836117fb565b50505050565b610a6d6116fb565b73ffffffffffffffffffffffffffffffffffffffff168173ffffffffffffffffffffffffffffffffffffffff1614610ad1576040517f6697b23200000000000000000000000000000000000000000000000000000000815260040160405180910390fd5b610adb82826118ed565b505050565b7fda77f6231fec42b4d28b0cb4169b6957269348cad2424fc7119fb6ab7cf4f0f081565b6000801b610b118161168f565b610b196119e0565b50565b7f92de27771f92d6942691d73358b3a4673e4880de8356f8f2cf452be87e02d363610b468161168f565b6000610b51846116a3565b905060008103610b96576040517f08c379a0000000000000000000000000000000000000000000000000000000008152600401610b8d906134f6565b60405180910390fd5b82600660008773ffffffffffffffffffffffffffffffffffffffff1673ffffffffffffffffffffffffffffffffffffffff168152602001908152602001600020541015610c18576040517f08c379a0000000000000000000000000000000000000000000000000000000008152600401610c0f9061368f565b60405180910390fd5b82600660008773ffffffffffffffffffffffffffffffffffffffff1673ffffffffffffffffffffffffffffffffffffffff1681526020019081526020016000206000828254610c6791906136af565b92505081905550610c8a308683866040518060200160405280600081525061156d565b8473ffffffffffffffffffffffffffffffffffffffff167fd2dc74064ce9979876047afc7922931592038bce8a7fbaf28417799c138e4e4d600660008873ffffffffffffffffffffffffffffffffffffffff1673ffffffffffffffffffffffffffffffffffffffff16815260200190815260200160002054604051610d0f91906128ef565b60405180910390a25050505050565b60608151835114610d6a57815183516040517f5b059991000000000000000000000000000000000000000000000000000000008152600401610d619291906136e3565b60405180910390fd5b6000835167ffffffffffffffff811115610d8757610d86612add565b5b604051908082528060200260200182016040528015610db55781602001602082028036833780820191505090505b50905060005b8451811015610e2257610df2610dda8287611a4390919063ffffffff16565b610ded8387611a5790919063ffffffff16565b61065e565b828281518110610e0557610e0461370c565b5b60200260200101818152505080610e1b9061373b565b9050610dbb565b508091505092915050565b610e3a6000801b33611023565b610e79576040517f08c379a0000000000000000000000000000000000000000000000000000000008152600401610e70906137f5565b60405180910390fd5b600460008273ffffffffffffffffffffffffffffffffffffffff1673ffffffffffffffffffffffffffffffffffffffff16815260200190815260200160002060006101000a81549060ff021916905550565b6000600560009054906101000a900460ff16905090565b610eef6000801b33611023565b610f2e576040517f08c379a0000000000000000000000000000000000000000000000000000000008152600401610f2590613887565b60405180910390fd5b610f587f9f2df0fed2c77648de5860a4cc508cd0818c85b8b8a1ab4ceeef8d981c8956a682610a43565b50565b7f95879078ac5f9ef2655935a8a313c87a55cd3739fa85c7b76890b7dbcd26b36b610f858161168f565b6000610f90846116a3565b905060008103610fd5576040517f08c379a0000000000000000000000000000000000000000000000000000000008152600401610fcc906134f6565b60405180910390fd5b610ff1868683866040518060200160405280600081525061156d565b505050505050565b6000801b6110068161168f565b61100e611a6b565b50565b600061101c826116a3565b9050919050565b60006003600084815260200190815260200160002060000160008373ffffffffffffffffffffffffffffffffffffffff1673ffffffffffffffffffffffffffffffffffffffff16815260200190815260200160002060009054906101000a900460ff16905092915050565b61109b6000801b33611023565b6110da576040517f08c379a00000000000000000000000000000000000000000000000000000000081526004016110d190613919565b60405180910390fd5b6001600460008373ffffffffffffffffffffffffffffffffffffffff1673ffffffffffffffffffffffffffffffffffffffff16815260200190815260200160002060006101000a81548160ff02191690831515021790555050565b6000801b81565b61114e6111476116fb565b8383611ace565b5050565b7f95879078ac5f9ef2655935a8a313c87a55cd3739fa85c7b76890b7dbcd26b36b81565b6111836000801b33611023565b6111c2576040517f08c379a00000000000000000000000000000000000000000000000000000000081526004016111b9906139ab565b60405180910390fd5b6111ec7f92de27771f92d6942691d73358b3a4673e4880de8356f8f2cf452be87e02d36382610a43565b50565b7f9f2df0fed2c77648de5860a4cc508cd0818c85b8b8a1ab4ceeef8d981c8956a66112198161168f565b600082600001518360200151846040015160405160200161123c93929190613a28565b60405160208183030381529060405280519060200120905060006007600083815260200190815260200160002054146112aa576040517f08c379a00000000000000000000000000000000000000000000000000000000081526004016112a190613aa9565b60405180910390fd5b6008546007600083815260200190815260200160002081905550600860008154809291906112d79061373b565b91905055507ffa285f955ef58026f38dac0de794870e7349658301890a0307a6c6d67fd25b9b600160085461130c91906136af565b8460405161131b929190613b6a565b60405180910390a1505050565b7f9f2df0fed2c77648de5860a4cc508cd0818c85b8b8a1ab4ceeef8d981c8956a681565b6113558261097b565b61135e8161168f565b61136883836118ed565b50505050565b7f9f2df0fed2c77648de5860a4cc508cd0818c85b8b8a1ab4ceeef8d981c8956a66113988161168f565b60006113a3846116a3565b9050600081036113e8576040517f08c379a00000000000000000000000000000000000000000000000000000000081526004016113df906134f6565b60405180910390fd5b61140385828560405180602001604052806000815250611c3e565b5050505050565b6114176000801b33611023565b611456576040517f08c379a000000000000000000000000000000000000000000000000000000000815260040161144d90613c0c565b60405180910390fd5b6114807f95879078ac5f9ef2655935a8a313c87a55cd3739fa85c7b76890b7dbcd26b36b82610a43565b50565b6000600460008373ffffffffffffffffffffffffffffffffffffffff1673ffffffffffffffffffffffffffffffffffffffff16815260200190815260200160002060009054906101000a900460ff169050919050565b6000600160008473ffffffffffffffffffffffffffffffffffffffff1673ffffffffffffffffffffffffffffffffffffffff16815260200190815260200160002060008373ffffffffffffffffffffffffffffffffffffffff1673ffffffffffffffffffffffffffffffffffffffff16815260200190815260200160002060009054906101000a900460ff16905092915050565b60006115776116fb565b90508073ffffffffffffffffffffffffffffffffffffffff168673ffffffffffffffffffffffffffffffffffffffff16141580156115bc57506115ba86826114d9565b155b156116005780866040517fe237d9220000000000000000000000000000000000000000000000000000000081526004016115f792919061361a565b60405180910390fd5b61160d8686868686611cd7565b505050505050565b60007f7965db0b000000000000000000000000000000000000000000000000000000007bffffffffffffffffffffffffffffffffffffffffffffffffffffffff1916827bffffffffffffffffffffffffffffffffffffffffffffffffffffffff19161480611688575061168782611de2565b5b9050919050565b6116a08161169b6116fb565b611ec4565b50565b6000808260000151836020015184604001516040516020016116c793929190613a28565b6040516020818303038152906040528051906020012090506007600082815260200190815260200160002054915050919050565b600033905090565b600073ffffffffffffffffffffffffffffffffffffffff168473ffffffffffffffffffffffffffffffffffffffff16036117755760006040517f57f447ce00000000000000000000000000000000000000000000000000000000815260040161176c9190613c2c565b60405180910390fd5b600073ffffffffffffffffffffffffffffffffffffffff168573ffffffffffffffffffffffffffffffffffffffff16036117e75760006040517f01a835140000000000000000000000000000000000000000000000000000000081526004016117de9190613c2c565b60405180910390fd5b6117f48585858585611f15565b5050505050565b60006118078383611023565b6118e25760016003600085815260200190815260200160002060000160008473ffffffffffffffffffffffffffffffffffffffff1673ffffffffffffffffffffffffffffffffffffffff16815260200190815260200160002060006101000a81548160ff02191690831515021790555061187f6116fb565b73ffffffffffffffffffffffffffffffffffffffff168273ffffffffffffffffffffffffffffffffffffffff16847f2f8788117e7eff1d82e926ec794901d17c78024a50270940304540a733656f0d60405160405180910390a4600190506118e7565b600090505b92915050565b60006118f98383611023565b156119d55760006003600085815260200190815260200160002060000160008473ffffffffffffffffffffffffffffffffffffffff1673ffffffffffffffffffffffffffffffffffffffff16815260200190815260200160002060006101000a81548160ff0219169083151502179055506119726116fb565b73ffffffffffffffffffffffffffffffffffffffff168273ffffffffffffffffffffffffffffffffffffffff16847ff6391f5c32d9c69d2a47ea670b442974b53935d1edc7fd64eb21e047a839171b60405160405180910390a4600190506119da565b600090505b92915050565b6119e8611fc7565b6000600560006101000a81548160ff0219169083151502179055507f5db9ee0a495bf2e6ff9c91a7834c1ba4fdd244a5e8aa4e537bd38aeae4b073aa611a2c6116fb565b604051611a399190613c2c565b60405180910390a1565b600060208202602084010151905092915050565b600060208202602084010151905092915050565b611a73612007565b6001600560006101000a81548160ff0219169083151502179055507f62e78cea01bee320cd4e420270b5ea74000d11b0c9f74754ebdbfc544b05a258611ab76116fb565b604051611ac49190613c2c565b60405180910390a1565b600073ffffffffffffffffffffffffffffffffffffffff168273ffffffffffffffffffffffffffffffffffffffff1603611b405760006040517fced3e100000000000000000000000000000000000000000000000000000000008152600401611b379190613c2c565b60405180910390fd5b80600160008573ffffffffffffffffffffffffffffffffffffffff1673ffffffffffffffffffffffffffffffffffffffff16815260200190815260200160002060008473ffffffffffffffffffffffffffffffffffffffff1673ffffffffffffffffffffffffffffffffffffffff16815260200190815260200160002060006101000a81548160ff0219169083151502179055508173ffffffffffffffffffffffffffffffffffffffff168373ffffffffffffffffffffffffffffffffffffffff167f17307eab39ab6107e8899845ad3d59bd9653f200f220920489ca2b5937696c3183604051611c3191906129aa565b60405180910390a3505050565b600073ffffffffffffffffffffffffffffffffffffffff168473ffffffffffffffffffffffffffffffffffffffff1603611cb05760006040517f57f447ce000000000000000000000000000000000000000000000000000000008152600401611ca79190613c2c565b60405180910390fd5b600080611cbd8585612048565b91509150611ccf600087848487611f15565b505050505050565b600073ffffffffffffffffffffffffffffffffffffffff168473ffffffffffffffffffffffffffffffffffffffff1603611d495760006040517f57f447ce000000000000000000000000000000000000000000000000000000008152600401611d409190613c2c565b60405180910390fd5b600073ffffffffffffffffffffffffffffffffffffffff168573ffffffffffffffffffffffffffffffffffffffff1603611dbb5760006040517f01a83514000000000000000000000000000000000000000000000000000000008152600401611db29190613c2c565b60405180910390fd5b600080611dc88585612048565b91509150611dd98787848487611f15565b50505050505050565b60007fd9b67a26000000000000000000000000000000000000000000000000000000007bffffffffffffffffffffffffffffffffffffffffffffffffffffffff1916827bffffffffffffffffffffffffffffffffffffffffffffffffffffffff19161480611ead57507f0e89341c000000000000000000000000000000000000000000000000000000007bffffffffffffffffffffffffffffffffffffffffffffffffffffffff1916827bffffffffffffffffffffffffffffffffffffffffffffffffffffffff1916145b80611ebd5750611ebc82612078565b5b9050919050565b611ece8282611023565b611f115780826040517fe2517d3f000000000000000000000000000000000000000000000000000000008152600401611f08929190613c47565b60405180910390fd5b5050565b611f21858585856120e2565b600073ffffffffffffffffffffffffffffffffffffffff168473ffffffffffffffffffffffffffffffffffffffff1614611fc0576000611f5f6116fb565b90506001845103611faf576000611f80600086611a5790919063ffffffff16565b90506000611f98600086611a5790919063ffffffff16565b9050611fa8838989858589612490565b5050611fbe565b611fbd818787878787612644565b5b505b5050505050565b611fcf610ecb565b612005576040517f8dfc202b00000000000000000000000000000000000000000000000000000000815260040160405180910390fd5b565b61200f610ecb565b15612046576040517fd93c066500000000000000000000000000000000000000000000000000000000815260040160405180910390fd5b565b60608060405191506001825283602083015260408201905060018152826020820152604081016040529250929050565b60007f01ffc9a7000000000000000000000000000000000000000000000000000000007bffffffffffffffffffffffffffffffffffffffffffffffffffffffff1916827bffffffffffffffffffffffffffffffffffffffffffffffffffffffff1916149050919050565b805182511461212c57815181516040517f5b0599910000000000000000000000000000000000000000000000000000000081526004016121239291906136e3565b60405180910390fd5b60006121366116fb565b905060005b835181101561234b5760006121598286611a5790919063ffffffff16565b905060006121708386611a5790919063ffffffff16565b9050600073ffffffffffffffffffffffffffffffffffffffff168873ffffffffffffffffffffffffffffffffffffffff161461229d57600080600084815260200190815260200160002060008a73ffffffffffffffffffffffffffffffffffffffff1673ffffffffffffffffffffffffffffffffffffffff1681526020019081526020016000205490508181101561224557888183856040517f03dee4c500000000000000000000000000000000000000000000000000000000815260040161223c9493929190613c70565b60405180910390fd5b81810360008085815260200190815260200160002060008b73ffffffffffffffffffffffffffffffffffffffff1673ffffffffffffffffffffffffffffffffffffffff16815260200190815260200160002081905550505b600073ffffffffffffffffffffffffffffffffffffffff168773ffffffffffffffffffffffffffffffffffffffff1614612338578060008084815260200190815260200160002060008973ffffffffffffffffffffffffffffffffffffffff1673ffffffffffffffffffffffffffffffffffffffff16815260200190815260200160002060008282546123309190613545565b925050819055505b5050806123449061373b565b905061213b565b50600183510361240a57600061236b600085611a5790919063ffffffff16565b90506000612383600085611a5790919063ffffffff16565b90508573ffffffffffffffffffffffffffffffffffffffff168773ffffffffffffffffffffffffffffffffffffffff168473ffffffffffffffffffffffffffffffffffffffff167fc3d58168c5ae7397731d063d5bbf3d657854427343f4c083240f7aacaa2d0f6285856040516123fb9291906136e3565b60405180910390a45050612489565b8373ffffffffffffffffffffffffffffffffffffffff168573ffffffffffffffffffffffffffffffffffffffff168273ffffffffffffffffffffffffffffffffffffffff167f4a39dc06d4c0dbc64b70af90fd698a233a518aa5d07e595d983b8c0526c8f7fb8686604051612480929190613cb5565b60405180910390a45b5050505050565b60008473ffffffffffffffffffffffffffffffffffffffff163b111561263c578373ffffffffffffffffffffffffffffffffffffffff1663f23a6e6187878686866040518663ffffffff1660e01b81526004016124f1959493929190613d41565b6020604051808303816000875af192505050801561252d57506040513d601f19601f8201168201806040525081019061252a9190613db0565b60015b6125b1573d806000811461255d576040519150601f19603f3d011682016040523d82523d6000602084013e612562565b606091505b5060008151036125a957846040517f57f447ce0000000000000000000000000000000000000000000000000000000081526004016125a09190613c2c565b60405180910390fd5b805181602001fd5b63f23a6e6160e01b7bffffffffffffffffffffffffffffffffffffffffffffffffffffffff1916817bffffffffffffffffffffffffffffffffffffffffffffffffffffffff19161461263a57846040517f57f447ce0000000000000000000000000000000000000000000000000000000081526004016126319190613c2c565b60405180910390fd5b505b505050505050565b60008473ffffffffffffffffffffffffffffffffffffffff163b11156127f0578373ffffffffffffffffffffffffffffffffffffffff1663bc197c8187878686866040518663ffffffff1660e01b81526004016126a5959493929190613ddd565b6020604051808303816000875af19250505080156126e157506040513d601f19601f820116820180604052508101906126de9190613db0565b60015b612765573d8060008114612711576040519150601f19603f3d011682016040523d82523d6000602084013e612716565b606091505b50600081510361275d57846040517f57f447ce0000000000000000000000000000000000000000000000000000000081526004016127549190613c2c565b60405180910390fd5b805181602001fd5b63bc197c8160e01b7bffffffffffffffffffffffffffffffffffffffffffffffffffffffff1916817bffffffffffffffffffffffffffffffffffffffffffffffffffffffff1916146127ee57846040517f57f447ce0000000000000000000000000000000000000000000000000000000081526004016127e59190613c2c565b60405180910390fd5b505b505050505050565b6000604051905090565b600080fd5b600080fd5b600073ffffffffffffffffffffffffffffffffffffffff82169050919050565b60006128378261280c565b9050919050565b6128478161282c565b811461285257600080fd5b50565b6000813590506128648161283e565b92915050565b6000819050919050565b61287d8161286a565b811461288857600080fd5b50565b60008135905061289a81612874565b92915050565b600080604083850312156128b7576128b6612802565b5b60006128c585828601612855565b92505060206128d68582860161288b565b9150509250929050565b6128e98161286a565b82525050565b600060208201905061290460008301846128e0565b92915050565b60007fffffffff0000000000000000000000000000000000000000000000000000000082169050919050565b61293f8161290a565b811461294a57600080fd5b50565b60008135905061295c81612936565b92915050565b60006020828403121561297857612977612802565b5b60006129868482850161294d565b91505092915050565b60008115159050919050565b6129a48161298f565b82525050565b60006020820190506129bf600083018461299b565b92915050565b6000819050919050565b6129d8816129c5565b82525050565b60006020820190506129f360008301846129cf565b92915050565b600060208284031215612a0f57612a0e612802565b5b6000612a1d8482850161288b565b91505092915050565b600081519050919050565b600082825260208201905092915050565b60005b83811015612a60578082015181840152602081019050612a45565b60008484015250505050565b6000601f19601f8301169050919050565b6000612a8882612a26565b612a928185612a31565b9350612aa2818560208601612a42565b612aab81612a6c565b840191505092915050565b60006020820190508181036000830152612ad08184612a7d565b905092915050565b600080fd5b7f4e487b7100000000000000000000000000000000000000000000000000000000600052604160045260246000fd5b612b1582612a6c565b810181811067ffffffffffffffff82111715612b3457612b33612add565b5b80604052505050565b6000612b476127f8565b9050612b538282612b0c565b919050565b600080fd5b600080fd5b600080fd5b600067ffffffffffffffff821115612b8257612b81612add565b5b612b8b82612a6c565b9050602081019050919050565b82818337600083830152505050565b6000612bba612bb584612b67565b612b3d565b905082815260208101848484011115612bd657612bd5612b62565b5b612be1848285612b98565b509392505050565b600082601f830112612bfe57612bfd612b5d565b5b8135612c0e848260208601612ba7565b91505092915050565b600060608284031215612c2d57612c2c612ad8565b5b612c376060612b3d565b9050600082013567ffffffffffffffff811115612c5757612c56612b58565b5b612c6384828501612be9565b600083015250602082013567ffffffffffffffff811115612c8757612c86612b58565b5b612c9384828501612be9565b6020830152506040612ca78482850161288b565b60408301525092915050565b600080600060608486031215612ccc57612ccb612802565b5b6000612cda86828701612855565b935050602084013567ffffffffffffffff811115612cfb57612cfa612807565b5b612d0786828701612c17565b9250506040612d188682870161288b565b9150509250925092565b600060208284031215612d3857612d37612802565b5b6000612d4684828501612855565b91505092915050565b612d58816129c5565b8114612d6357600080fd5b50565b600081359050612d7581612d4f565b92915050565b600060208284031215612d9157612d90612802565b5b6000612d9f84828501612d66565b91505092915050565b600067ffffffffffffffff821115612dc357612dc2612add565b5b602082029050602081019050919050565b600080fd5b6000612dec612de784612da8565b612b3d565b90508083825260208201905060208402830185811115612e0f57612e0e612dd4565b5b835b81811015612e385780612e24888261288b565b845260208401935050602081019050612e11565b5050509392505050565b600082601f830112612e5757612e56612b5d565b5b8135612e67848260208601612dd9565b91505092915050565b600067ffffffffffffffff821115612e8b57612e8a612add565b5b612e9482612a6c565b9050602081019050919050565b6000612eb4612eaf84612e70565b612b3d565b905082815260208101848484011115612ed057612ecf612b62565b5b612edb848285612b98565b509392505050565b600082601f830112612ef857612ef7612b5d565b5b8135612f08848260208601612ea1565b91505092915050565b600080600080600060a08688031215612f2d57612f2c612802565b5b6000612f3b88828901612855565b9550506020612f4c88828901612855565b945050604086013567ffffffffffffffff811115612f6d57612f6c612807565b5b612f7988828901612e42565b935050606086013567ffffffffffffffff811115612f9a57612f99612807565b5b612fa688828901612e42565b925050608086013567ffffffffffffffff811115612fc757612fc6612807565b5b612fd388828901612ee3565b9150509295509295909350565b60008060408385031215612ff757612ff6612802565b5b600061300585828601612d66565b925050602061301685828601612855565b9150509250929050565b600067ffffffffffffffff82111561303b5761303a612add565b5b602082029050602081019050919050565b600061305f61305a84613020565b612b3d565b9050808382526020820190506020840283018581111561308257613081612dd4565b5b835b818110156130ab57806130978882612855565b845260208401935050602081019050613084565b5050509392505050565b600082601f8301126130ca576130c9612b5d565b5b81356130da84826020860161304c565b91505092915050565b600080604083850312156130fa576130f9612802565b5b600083013567ffffffffffffffff81111561311857613117612807565b5b613124858286016130b5565b925050602083013567ffffffffffffffff81111561314557613144612807565b5b61315185828601612e42565b9150509250929050565b600081519050919050565b600082825260208201905092915050565b6000819050602082019050919050565b6131908161286a565b82525050565b60006131a28383613187565b60208301905092915050565b6000602082019050919050565b60006131c68261315b565b6131d08185613166565b93506131db83613177565b8060005b8381101561320c5781516131f38882613196565b97506131fe836131ae565b9250506001810190506131df565b5085935050505092915050565b6000602082019050818103600083015261323381846131bb565b905092915050565b6000806000806080858703121561325557613254612802565b5b600061326387828801612855565b945050602061327487828801612855565b935050604085013567ffffffffffffffff81111561329557613294612807565b5b6132a187828801612c17565b92505060606132b28782880161288b565b91505092959194509250565b6000602082840312156132d4576132d3612802565b5b600082013567ffffffffffffffff8111156132f2576132f1612807565b5b6132fe84828501612c17565b91505092915050565b6133108161298f565b811461331b57600080fd5b50565b60008135905061332d81613307565b92915050565b6000806040838503121561334a57613349612802565b5b600061335885828601612855565b92505060206133698582860161331e565b9150509250929050565b6000806040838503121561338a57613389612802565b5b600061339885828601612855565b92505060206133a985828601612855565b9150509250929050565b600080600080600060a086880312156133cf576133ce612802565b5b60006133dd88828901612855565b95505060206133ee88828901612855565b94505060406133ff8882890161288b565b93505060606134108882890161288b565b925050608086013567ffffffffffffffff81111561343157613430612807565b5b61343d88828901612ee3565b9150509295509295909350565b7f4e487b7100000000000000000000000000000000000000000000000000000000600052602260045260246000fd5b6000600282049050600182168061349157607f821691505b6020821081036134a4576134a361344a565b5b50919050565b7f5450467420646f6573206e6f7420657869737400000000000000000000000000600082015250565b60006134e0601383612a31565b91506134eb826134aa565b602082019050919050565b6000602082019050818103600083015261350f816134d3565b9050919050565b7f4e487b7100000000000000000000000000000000000000000000000000000000600052601160045260246000fd5b60006135508261286a565b915061355b8361286a565b925082820190508082111561357357613572613516565b5b92915050565b7f4d75737420686176652061646d696e20726f6c6520746f2061737369676e206160008201527f756374696f6e20706c6163656d656e7420726f6c650000000000000000000000602082015250565b60006135d5603583612a31565b91506135e082613579565b604082019050919050565b60006020820190508181036000830152613604816135c8565b9050919050565b6136148161282c565b82525050565b600060408201905061362f600083018561360b565b61363c602083018461360b565b9392505050565b7f4e6f7420656e6f7567682066726f7a656e2062616c616e636500000000000000600082015250565b6000613679601983612a31565b915061368482613643565b602082019050919050565b600060208201905081810360008301526136a88161366c565b9050919050565b60006136ba8261286a565b91506136c58361286a565b92508282039050818111156136dd576136dc613516565b5b92915050565b60006040820190506136f860008301856128e0565b61370560208301846128e0565b9392505050565b7f4e487b7100000000000000000000000000000000000000000000000000000000600052603260045260246000fd5b60006137468261286a565b91507fffffffffffffffffffffffffffffffffffffffffffffffffffffffffffffffff820361377857613777613516565b5b600182019050919050565b7f4d75737420686176652061646d696e20726f6c6520746f2064697361626c652060008201527f6164647265737300000000000000000000000000000000000000000000000000602082015250565b60006137df602783612a31565b91506137ea82613783565b604082019050919050565b6000602082019050818103600083015261380e816137d2565b9050919050565b7f4d75737420686176652061646d696e20726f6c6520746f2061737369676e206d60008201527f696e74657220726f6c6500000000000000000000000000000000000000000000602082015250565b6000613871602a83612a31565b915061387c82613815565b604082019050919050565b600060208201905081810360008301526138a081613864565b9050919050565b7f4d75737420686176652061646d696e20726f6c6520746f20656e61626c65206160008201527f6464726573730000000000000000000000000000000000000000000000000000602082015250565b6000613903602683612a31565b915061390e826138a7565b604082019050919050565b60006020820190508181036000830152613932816138f6565b9050919050565b7f4d75737420686176652061646d696e20726f6c6520746f2061737369676e206660008201527f7265657a657220726f6c65000000000000000000000000000000000000000000602082015250565b6000613995602b83612a31565b91506139a082613939565b604082019050919050565b600060208201905081810360008301526139c481613988565b9050919050565b600081905092915050565b60006139e182612a26565b6139eb81856139cb565b93506139fb818560208601612a42565b80840191505092915050565b6000819050919050565b613a22613a1d8261286a565b613a07565b82525050565b6000613a3482866139d6565b9150613a4082856139d6565b9150613a4c8284613a11565b602082019150819050949350505050565b7f5450467420616c72656164792065786973747300000000000000000000000000600082015250565b6000613a93601383612a31565b9150613a9e82613a5d565b602082019050919050565b60006020820190508181036000830152613ac281613a86565b9050919050565b600082825260208201905092915050565b6000613ae582612a26565b613aef8185613ac9565b9350613aff818560208601612a42565b613b0881612a6c565b840191505092915050565b60006060830160008301518482036000860152613b308282613ada565b91505060208301518482036020860152613b4a8282613ada565b9150506040830151613b5f6040860182613187565b508091505092915050565b6000604082019050613b7f60008301856128e0565b8181036020830152613b918184613b13565b90509392505050565b7f4d75737420686176652061646d696e20726f6c6520746f2061737369676e206460008201527f697265637420706c6163656d656e7420726f6c65000000000000000000000000602082015250565b6000613bf6603483612a31565b9150613c0182613b9a565b604082019050919050565b60006020820190508181036000830152613c2581613be9565b9050919050565b6000602082019050613c41600083018461360b565b92915050565b6000604082019050613c5c600083018561360b565b613c6960208301846129cf565b9392505050565b6000608082019050613c85600083018761360b565b613c9260208301866128e0565b613c9f60408301856128e0565b613cac60608301846128e0565b95945050505050565b60006040820190508181036000830152613ccf81856131bb565b90508181036020830152613ce381846131bb565b90509392505050565b600081519050919050565b600082825260208201905092915050565b6000613d1382613cec565b613d1d8185613cf7565b9350613d2d818560208601612a42565b613d3681612a6c565b840191505092915050565b600060a082019050613d56600083018861360b565b613d63602083018761360b565b613d7060408301866128e0565b613d7d60608301856128e0565b8181036080830152613d8f8184613d08565b90509695505050505050565b600081519050613daa81612936565b92915050565b600060208284031215613dc657613dc5612802565b5b6000613dd484828501613d9b565b91505092915050565b600060a082019050613df2600083018861360b565b613dff602083018761360b565b8181036040830152613e1181866131bb565b90508181036060830152613e2581856131bb565b90508181036080830152613e398184613d08565b9050969550505050505056fea2646970667358221220ff89dcc1cbc0e3fd06a2f245049a1ba1bb6184f7cdc1667e5a65bf64ce9f2ab264736f6c6343000814003368747470733a2f2f6d796170692e636f6d2f6170692f746f6b656e2f7b69647d2e6a736f6e",
  "linkReferences": {},
  "deployedLinkReferences": {}
}