{
  "_format": "hh-sol-artifact-1",
  "contractName": "RealDigital",
  "sourceName": "contracts/drex/RealDigital.sol",
  "abi": [
    {
      "inputs": [
        {
          "internalType": "string",
          "name": "_name",
          "type": "string"
        },
        {
          "internalType": "string",
          "name": "_symbol",
          "type": "string"
        },
        {
          "internalType": "address",
          "name": "_authority",
          "type": "address"
        },
        {
          "internalType": "address",
          "name": "_admin",
          "type": "address"
        }
      ],
      "stateMutability": "nonpayable",
      "type": "constructor"
    },
    {
      "inputs": [],
      "name": "AccessControlBadConfirmation",
      "type": "error"
    },
    {
      "inputs": [
        {
          "internalType": "address",
          "name": "account",
          "type": "address"
        },
        {
          "internalType": "bytes32",
          "name": "neededRole",
          "type": "bytes32"
        }
      ],
      "name": "AccessControlUnauthorizedAccount",
      "type": "error"
    },
    {
      "inputs": [
        {
          "internalType": "address",
          "name": "spender",
          "type": "address"
        },
        {
          "internalType": "uint256",
          "name": "allowance",
          "type": "uint256"
        },
        {
          "internalType": "uint256",
          "name": "needed",
          "type": "uint256"
        }
      ],
      "name": "ERC20InsufficientAllowance",
      "type": "error"
    },
    {
      "inputs": [
        {
          "internalType": "address",
          "name": "sender",
          "type": "address"
        },
        {
          "internalType": "uint256",
          "name": "balance",
          "type": "uint256"
        },
        {
          "internalType": "uint256",
          "name": "needed",
          "type": "uint256"
        }
      ],
      "name": "ERC20InsufficientBalance",
      "type": "error"
    },
    {
      "inputs": [
        {
          "internalType": "address",
          "name": "approver",
          "type": "address"
        }
      ],
      "name": "ERC20InvalidApprover",
      "type": "error"
    },
    {
      "inputs": [
        {
          "internalType": "address",
          "name": "receiver",
          "type": "address"
        }
      ],
      "name": "ERC20InvalidReceiver",
      "type": "error"
    },
    {
      "inputs": [
        {
          "internalType": "address",
          "name": "sender",
          "type": "address"
        }
      ],
      "name": "ERC20InvalidSender",
      "type": "error"
    },
    {
      "inputs": [
        {
          "internalType": "address",
          "name": "spender",
          "type": "address"
        }
      ],
      "name": "ERC20InvalidSpender",
      "type": "error"
    },
    {
      "inputs": [],
      "name": "EnforcedPause",
      "type": "error"
    },
    {
      "inputs": [],
      "name": "ExpectedPause",
      "type": "error"
    },
    {
      "anonymous": false,
      "inputs": [
        {
          "indexed": true,
          "internalType": "address",
          "name": "owner",
          "type": "address"
        },
        {
          "indexed": true,
          "internalType": "address",
          "name": "spender",
          "type": "address"
        },
        {
          "indexed": false,
          "internalType": "uint256",
          "name": "value",
          "type": "uint256"
        }
      ],
      "name": "Approval",
      "type": "event"
    },
    {
      "anonymous": false,
      "inputs": [
        {
          "indexed": true,
          "internalType": "address",
          "name": "member",
          "type": "address"
        }
      ],
      "name": "DisabledAccount",
      "type": "event"
    },
    {
      "anonymous": false,
      "inputs": [
        {
          "indexed": true,
          "internalType": "address",
          "name": "member",
          "type": "address"
        }
      ],
      "name": "EnabledAccount",
      "type": "event"
    },
    {
      "anonymous": false,
      "inputs": [
        {
          "indexed": true,
          "internalType": "address",
          "name": "wallet",
          "type": "address"
        },
        {
          "indexed": false,
          "internalType": "uint256",
          "name": "amount",
          "type": "uint256"
        }
      ],
      "name": "FrozenBalance",
      "type": "event"
    },
    {
      "anonymous": false,
      "inputs": [
        {
          "indexed": false,
          "internalType": "address",
          "name": "account",
          "type": "address"
        }
      ],
      "name": "Paused",
      "type": "event"
    },
    {
      "anonymous": false,
      "inputs": [
        {
          "indexed": true,
          "internalType": "bytes32",
          "name": "role",
          "type": "bytes32"
        },
        {
          "indexed": true,
          "internalType": "bytes32",
          "name": "previousAdminRole",
          "type": "bytes32"
        },
        {
          "indexed": true,
          "internalType": "bytes32",
          "name": "newAdminRole",
          "type": "bytes32"
        }
      ],
      "name": "RoleAdminChanged",
      "type": "event"
    },
    {
      "anonymous": false,
      "inputs": [
        {
          "indexed": true,
          "internalType": "bytes32",
          "name": "role",
          "type": "bytes32"
        },
        {
          "indexed": true,
          "internalType": "address",
          "name": "account",
          "type": "address"
        },
        {
          "indexed": true,
          "internalType": "address",
          "name": "sender",
          "type": "address"
        }
      ],
      "name": "RoleGranted",
      "type": "event"
    },
    {
      "anonymous": false,
      "inputs": [
        {
          "indexed": true,
          "internalType": "bytes32",
          "name": "role",
          "type": "bytes32"
        },
        {
          "indexed": true,
          "internalType": "address",
          "name": "account",
          "type": "address"
        },
        {
          "indexed": true,
          "internalType": "address",
          "name": "sender",
          "type": "address"
        }
      ],
      "name": "RoleRevoked",
      "type": "event"
    },
    {
      "anonymous": false,
      "inputs": [
        {
          "indexed": true,
          "internalType": "address",
          "name": "from",
          "type": "address"
        },
        {
          "indexed": true,
          "internalType": "address",
          "name": "to",
          "type": "address"
        },
        {
          "indexed": false,
          "internalType": "uint256",
          "name": "value",
          "type": "uint256"
        }
      ],
      "name": "Transfer",
      "type": "event"
    },
    {
      "anonymous": false,
      "inputs": [
        {
          "indexed": false,
          "internalType": "address",
          "name": "account",
          "type": "address"
        }
      ],
      "name": "Unpaused",
      "type": "event"
    },
    {
      "inputs": [],
      "name": "ACCESS_ROLE",
      "outputs": [
        {
          "internalType": "bytes32",
          "name": "",
          "type": "bytes32"
        }
      ],
      "stateMutability": "view",
      "type": "function"
    },
    {
      "inputs": [],
      "name": "BURNER_ROLE",
      "outputs": [
        {
          "internalType": "bytes32",
          "name": "",
          "type": "bytes32"
        }
      ],
      "stateMutability": "view",
      "type": "function"
    },
    {
      "inputs": [],
      "name": "DEFAULT_ADMIN_ROLE",
      "outputs": [
        {
          "internalType": "bytes32",
          "name": "",
          "type": "bytes32"
        }
      ],
      "stateMutability": "view",
      "type": "function"
    },
    {
      "inputs": [],
      "name": "FREEZER_ROLE",
      "outputs": [
        {
          "internalType": "bytes32",
          "name": "",
          "type": "bytes32"
        }
      ],
      "stateMutability": "view",
      "type": "function"
    },
    {
      "inputs": [],
      "name": "MINTER_ROLE",
      "outputs": [
        {
          "internalType": "bytes32",
          "name": "",
          "type": "bytes32"
        }
      ],
      "stateMutability": "view",
      "type": "function"
    },
    {
      "inputs": [],
      "name": "MOVER_ROLE",
      "outputs": [
        {
          "internalType": "bytes32",
          "name": "",
          "type": "bytes32"
        }
      ],
      "stateMutability": "view",
      "type": "function"
    },
    {
      "inputs": [],
      "name": "PAUSER_ROLE",
      "outputs": [
        {
          "internalType": "bytes32",
          "name": "",
          "type": "bytes32"
        }
      ],
      "stateMutability": "view",
      "type": "function"
    },
    {
      "inputs": [
        {
          "internalType": "address",
          "name": "owner",
          "type": "address"
        },
        {
          "internalType": "address",
          "name": "spender",
          "type": "address"
        }
      ],
      "name": "allowance",
      "outputs": [
        {
          "internalType": "uint256",
          "name": "",
          "type": "uint256"
        }
      ],
      "stateMutability": "view",
      "type": "function"
    },
    {
      "inputs": [
        {
          "internalType": "address",
          "name": "spender",
          "type": "address"
        },
        {
          "internalType": "uint256",
          "name": "amount",
          "type": "uint256"
        }
      ],
      "name": "approve",
      "outputs": [
        {
          "internalType": "bool",
          "name": "",
          "type": "bool"
        }
      ],
      "stateMutability": "nonpayable",
      "type": "function"
    },
    {
      "inputs": [
        {
          "internalType": "address",
          "name": "account",
          "type": "address"
        }
      ],
      "name": "balanceOf",
      "outputs": [
        {
          "internalType": "uint256",
          "name": "",
          "type": "uint256"
        }
      ],
      "stateMutability": "view",
      "type": "function"
    },
    {
      "inputs": [
        {
          "internalType": "uint256",
          "name": "amount",
          "type": "uint256"
        }
      ],
      "name": "burn",
      "outputs": [],
      "stateMutability": "nonpayable",
      "type": "function"
    },
    {
      "inputs": [
        {
          "internalType": "address",
          "name": "account",
          "type": "address"
        },
        {
          "internalType": "uint256",
          "name": "amount",
          "type": "uint256"
        }
      ],
      "name": "burnFrom",
      "outputs": [],
      "stateMutability": "nonpayable",
      "type": "function"
    },
    {
      "inputs": [],
      "name": "decimals",
      "outputs": [
        {
          "internalType": "uint8",
          "name": "",
          "type": "uint8"
        }
      ],
      "stateMutability": "view",
      "type": "function"
    },
    {
      "inputs": [
        {
          "internalType": "address",
          "name": "spender",
          "type": "address"
        },
        {
          "internalType": "uint256",
          "name": "subtractedValue",
          "type": "uint256"
        }
      ],
      "name": "decreaseAllowance",
      "outputs": [
        {
          "internalType": "bool",
          "name": "",
          "type": "bool"
        }
      ],
      "stateMutability": "nonpayable",
      "type": "function"
    },
    {
      "inputs": [
        {
          "internalType": "address",
          "name": "from",
          "type": "address"
        },
        {
          "internalType": "uint256",
          "name": "amount",
          "type": "uint256"
        }
      ],
      "name": "decreaseFrozenBalance",
      "outputs": [],
      "stateMutability": "nonpayable",
      "type": "function"
    },
    {
      "inputs": [
        {
          "internalType": "address",
          "name": "member",
          "type": "address"
        }
      ],
      "name": "disableAccount",
      "outputs": [],
      "stateMutability": "nonpayable",
      "type": "function"
    },
    {
      "inputs": [
        {
          "internalType": "address",
          "name": "member",
          "type": "address"
        }
      ],
      "name": "enableAccount",
      "outputs": [],
      "stateMutability": "nonpayable",
      "type": "function"
    },
    {
      "inputs": [
        {
          "internalType": "address",
          "name": "account",
          "type": "address"
        }
      ],
      "name": "frozenBalanceOf",
      "outputs": [
        {
          "internalType": "uint256",
          "name": "",
          "type": "uint256"
        }
      ],
      "stateMutability": "view",
      "type": "function"
    },
    {
      "inputs": [
        {
          "internalType": "bytes32",
          "name": "role",
          "type": "bytes32"
        }
      ],
      "name": "getRoleAdmin",
      "outputs": [
        {
          "internalType": "bytes32",
          "name": "",
          "type": "bytes32"
        }
      ],
      "stateMutability": "view",
      "type": "function"
    },
    {
      "inputs": [
        {
          "internalType": "bytes32",
          "name": "role",
          "type": "bytes32"
        },
        {
          "internalType": "address",
          "name": "account",
          "type": "address"
        }
      ],
      "name": "grantRole",
      "outputs": [],
      "stateMutability": "nonpayable",
      "type": "function"
    },
    {
      "inputs": [
        {
          "internalType": "bytes32",
          "name": "role",
          "type": "bytes32"
        },
        {
          "internalType": "address",
          "name": "account",
          "type": "address"
        }
      ],
      "name": "hasRole",
      "outputs": [
        {
          "internalType": "bool",
          "name": "",
          "type": "bool"
        }
      ],
      "stateMutability": "view",
      "type": "function"
    },
    {
      "inputs": [
        {
          "internalType": "address",
          "name": "spender",
          "type": "address"
        },
        {
          "internalType": "uint256",
          "name": "addedValue",
          "type": "uint256"
        }
      ],
      "name": "increaseAllowance",
      "outputs": [
        {
          "internalType": "bool",
          "name": "",
          "type": "bool"
        }
      ],
      "stateMutability": "nonpayable",
      "type": "function"
    },
    {
      "inputs": [
        {
          "internalType": "address",
          "name": "from",
          "type": "address"
        },
        {
          "internalType": "uint256",
          "name": "amount",
          "type": "uint256"
        }
      ],
      "name": "increaseFrozenBalance",
      "outputs": [],
      "stateMutability": "nonpayable",
      "type": "function"
    },
    {
      "inputs": [
        {
          "internalType": "address",
          "name": "to",
          "type": "address"
        },
        {
          "internalType": "uint256",
          "name": "amount",
          "type": "uint256"
        }
      ],
      "name": "mint",
      "outputs": [],
      "stateMutability": "nonpayable",
      "type": "function"
    },
    {
      "inputs": [
        {
          "internalType": "address",
          "name": "from",
          "type": "address"
        },
        {
          "internalType": "address",
          "name": "to",
          "type": "address"
        },
        {
          "internalType": "uint256",
          "name": "amount",
          "type": "uint256"
        }
      ],
      "name": "move",
      "outputs": [],
      "stateMutability": "nonpayable",
      "type": "function"
    },
    {
      "inputs": [
        {
          "internalType": "address",
          "name": "from",
          "type": "address"
        },
        {
          "internalType": "uint256",
          "name": "amount",
          "type": "uint256"
        }
      ],
      "name": "moveAndBurn",
      "outputs": [],
      "stateMutability": "nonpayable",
      "type": "function"
    },
    {
      "inputs": [],
      "name": "name",
      "outputs": [
        {
          "internalType": "string",
          "name": "",
          "type": "string"
        }
      ],
      "stateMutability": "view",
      "type": "function"
    },
    {
      "inputs": [],
      "name": "pause",
      "outputs": [],
      "stateMutability": "nonpayable",
      "type": "function"
    },
    {
      "inputs": [],
      "name": "paused",
      "outputs": [
        {
          "internalType": "bool",
          "name": "",
          "type": "bool"
        }
      ],
      "stateMutability": "view",
      "type": "function"
    },
    {
      "inputs": [
        {
          "internalType": "bytes32",
          "name": "role",
          "type": "bytes32"
        },
        {
          "internalType": "address",
          "name": "callerConfirmation",
          "type": "address"
        }
      ],
      "name": "renounceRole",
      "outputs": [],
      "stateMutability": "nonpayable",
      "type": "function"
    },
    {
      "inputs": [
        {
          "internalType": "bytes32",
          "name": "role",
          "type": "bytes32"
        },
        {
          "internalType": "address",
          "name": "account",
          "type": "address"
        }
      ],
      "name": "revokeRole",
      "outputs": [],
      "stateMutability": "nonpayable",
      "type": "function"
    },
    {
      "inputs": [
        {
          "internalType": "bytes4",
          "name": "interfaceId",
          "type": "bytes4"
        }
      ],
      "name": "supportsInterface",
      "outputs": [
        {
          "internalType": "bool",
          "name": "",
          "type": "bool"
        }
      ],
      "stateMutability": "view",
      "type": "function"
    },
    {
      "inputs": [],
      "name": "symbol",
      "outputs": [
        {
          "internalType": "string",
          "name": "",
          "type": "string"
        }
      ],
      "stateMutability": "view",
      "type": "function"
    },
    {
      "inputs": [],
      "name": "totalSupply",
      "outputs": [
        {
          "internalType": "uint256",
          "name": "",
          "type": "uint256"
        }
      ],
      "stateMutability": "view",
      "type": "function"
    },
    {
      "inputs": [
        {
          "internalType": "address",
          "name": "to",
          "type": "address"
        },
        {
          "internalType": "uint256",
          "name": "amount",
          "type": "uint256"
        }
      ],
      "name": "transfer",
      "outputs": [
        {
          "internalType": "bool",
          "name": "",
          "type": "bool"
        }
      ],
      "stateMutability": "nonpayable",
      "type": "function"
    },
    {
      "inputs": [
        {
          "internalType": "address",
          "name": "from",
          "type": "address"
        },
        {
          "internalType": "address",
          "name": "to",
          "type": "address"
        },
        {
          "internalType": "uint256",
          "name": "amount",
          "type": "uint256"
        }
      ],
      "name": "transferFrom",
      "outputs": [
        {
          "internalType": "bool",
          "name": "",
          "type": "bool"
        }
      ],
      "stateMutability": "nonpayable",
      "type": "function"
    },
    {
      "inputs": [],
      "name": "unpause",
      "outputs": [],
      "stateMutability": "nonpayable",
      "type": "function"
    },
    {
      "inputs": [
        {
          "internalType": "address",
          "name": "account",
          "type": "address"
        }
      ],
      "name": "verifyAccount",
      "outputs": [
        {
          "internalType": "bool",
          "name": "",
          "type": "bool"
        }
      ],
      "stateMutability": "view",
      "type": "function"
    }
  ],
  "bytecode": "0x60806040523480156200001157600080fd5b506040516200389938038062003899833981810160405281019062000037919062000701565b8181858581600390816200004c9190620009fc565b5080600490816200005e9190620009fc565b505050620000766000801b826200030e60201b60201c565b50620000a97f7def632d64a7259044c921303d544f945a340c8d4334adc0e0bd830a54deb528836200030e60201b60201c565b50620000dc7f9f2df0fed2c77648de5860a4cc508cd0818c85b8b8a1ab4ceeef8d981c8956a6836200030e60201b60201c565b506200010f7f3c11d16cbaffd01df69ce1c404f6340ee057498f5f00246190ea54220576a848836200030e60201b60201c565b50620001427fe5ed70e23144309ce456cb48bf5e6d0d8e160f094a6d65ecf1d5b03cf292d8e6836200030e60201b60201c565b50620001757f92de27771f92d6942691d73358b3a4673e4880de8356f8f2cf452be87e02d363836200030e60201b60201c565b50620001a87f65d7a28e3265b37a6474929f336521b332c1681b933f6cb9f3376673440d862a826200030e60201b60201c565b50620001de7f7def632d64a7259044c921303d544f945a340c8d4334adc0e0bd830a54deb5286000801b6200041260201b60201c565b620002137f9f2df0fed2c77648de5860a4cc508cd0818c85b8b8a1ab4ceeef8d981c8956a66000801b6200041260201b60201c565b620002487f3c11d16cbaffd01df69ce1c404f6340ee057498f5f00246190ea54220576a8486000801b6200041260201b60201c565b6200027d7fe5ed70e23144309ce456cb48bf5e6d0d8e160f094a6d65ecf1d5b03cf292d8e66000801b6200041260201b60201c565b620002b27f92de27771f92d6942691d73358b3a4673e4880de8356f8f2cf452be87e02d3636000801b6200041260201b60201c565b620002e77f65d7a28e3265b37a6474929f336521b332c1681b933f6cb9f3376673440d862a6000801b6200041260201b60201c565b50506000600760006101000a81548160ff0219169083151502179055505050505062000ae3565b60006200032283836200047660201b60201c565b620004075760016005600085815260200190815260200160002060000160008473ffffffffffffffffffffffffffffffffffffffff1673ffffffffffffffffffffffffffffffffffffffff16815260200190815260200160002060006101000a81548160ff021916908315150217905550620003a3620004e160201b60201c565b73ffffffffffffffffffffffffffffffffffffffff168273ffffffffffffffffffffffffffffffffffffffff16847f2f8788117e7eff1d82e926ec794901d17c78024a50270940304540a733656f0d60405160405180910390a4600190506200040c565b600090505b92915050565b60006200042583620004e960201b60201c565b90508160056000858152602001908152602001600020600101819055508181847fbd79b86ffe0ab8e8776151514217cd7cacd52c909f66475c3af44e129f0b00ff60405160405180910390a4505050565b60006005600084815260200190815260200160002060000160008373ffffffffffffffffffffffffffffffffffffffff1673ffffffffffffffffffffffffffffffffffffffff16815260200190815260200160002060009054906101000a900460ff16905092915050565b600033905090565b600060056000838152602001908152602001600020600101549050919050565b6000604051905090565b600080fd5b600080fd5b600080fd5b600080fd5b6000601f19601f8301169050919050565b7f4e487b7100000000000000000000000000000000000000000000000000000000600052604160045260246000fd5b620005728262000527565b810181811067ffffffffffffffff8211171562000594576200059362000538565b5b80604052505050565b6000620005a962000509565b9050620005b7828262000567565b919050565b600067ffffffffffffffff821115620005da57620005d962000538565b5b620005e58262000527565b9050602081019050919050565b60005b8381101562000612578082015181840152602081019050620005f5565b60008484015250505050565b6000620006356200062f84620005bc565b6200059d565b90508281526020810184848401111562000654576200065362000522565b5b62000661848285620005f2565b509392505050565b600082601f8301126200068157620006806200051d565b5b8151620006938482602086016200061e565b91505092915050565b600073ffffffffffffffffffffffffffffffffffffffff82169050919050565b6000620006c9826200069c565b9050919050565b620006db81620006bc565b8114620006e757600080fd5b50565b600081519050620006fb81620006d0565b92915050565b600080600080608085870312156200071e576200071d62000513565b5b600085015167ffffffffffffffff8111156200073f576200073e62000518565b5b6200074d8782880162000669565b945050602085015167ffffffffffffffff81111562000771576200077062000518565b5b6200077f8782880162000669565b93505060406200079287828801620006ea565b9250506060620007a587828801620006ea565b91505092959194509250565b600081519050919050565b7f4e487b7100000000000000000000000000000000000000000000000000000000600052602260045260246000fd5b600060028204905060018216806200080457607f821691505b6020821081036200081a5762000819620007bc565b5b50919050565b60008190508160005260206000209050919050565b60006020601f8301049050919050565b600082821b905092915050565b600060088302620008847fffffffffffffffffffffffffffffffffffffffffffffffffffffffffffffffff8262000845565b62000890868362000845565b95508019841693508086168417925050509392505050565b6000819050919050565b6000819050919050565b6000620008dd620008d7620008d184620008a8565b620008b2565b620008a8565b9050919050565b6000819050919050565b620008f983620008bc565b620009116200090882620008e4565b84845462000852565b825550505050565b600090565b6200092862000919565b62000935818484620008ee565b505050565b5b818110156200095d57620009516000826200091e565b6001810190506200093b565b5050565b601f821115620009ac57620009768162000820565b620009818462000835565b8101602085101562000991578190505b620009a9620009a08562000835565b8301826200093a565b50505b505050565b600082821c905092915050565b6000620009d160001984600802620009b1565b1980831691505092915050565b6000620009ec8383620009be565b9150826002028217905092915050565b62000a0782620007b1565b67ffffffffffffffff81111562000a235762000a2262000538565b5b62000a2f8254620007eb565b62000a3c82828562000961565b600060209050601f83116001811462000a74576000841562000a5f578287015190505b62000a6b8582620009de565b86555062000adb565b601f19841662000a848662000820565b60005b8281101562000aae5784890151825560018201915060208501945060208101905062000a87565b8683101562000ace578489015162000aca601f891682620009be565b8355505b6001600288020188555050505b505050505050565b612da68062000af36000396000f3fe608060405234801561001057600080fd5b50600436106102325760003560e01c80635c975abb11610130578063a457c2d7116100b8578063d53913931161007c578063d53913931461068b578063d547741f146106a9578063dd62ed3e146106c5578063e63ab1e9146106f5578063f16dfbe91461071357610232565b8063a457c2d7146105c3578063a9059cbb146105f3578063b4a4ed3914610623578063bb35783b1461063f578063be91de531461065b57610232565b806384b61581116100ff57806384b615811461051f5780638c79ba3a1461053b57806391d148541461055757806395d89b4114610587578063a217fddf146105a557610232565b80635c975abb146104ab57806370a08231146104c957806379cc6790146104f95780638456cb591461051557610232565b8063286041bd116101be5780633950935111610182578063395093511461041b5780633f4ba83a1461044b57806340c10f191461045557806342966c681461047157806356b855aa1461048d57610232565b8063286041bd1461038b5780632b218c6a146103a95780632f2ff15d146103c5578063313ce567146103e157806336568abe146103ff57610232565b806318160ddd1161020557806318160ddd146102d35780631a3f5152146102f157806323b872dd1461030d578063248a9ca31461033d578063282c51f31461036d57610232565b806301ffc9a71461023757806306a85f0f1461026757806306fdde0314610285578063095ea7b3146102a3575b600080fd5b610251600480360381019061024c9190612361565b610743565b60405161025e91906123a9565b60405180910390f35b61026f6107bd565b60405161027c91906123dd565b60405180910390f35b61028d6107e1565b60405161029a9190612488565b60405180910390f35b6102bd60048036038101906102b8919061253e565b610873565b6040516102ca91906123a9565b60405180910390f35b6102db6108e1565b6040516102e8919061258d565b60405180910390f35b61030b6004803603810190610306919061253e565b6108eb565b005b610327600480360381019061032291906125a8565b610937565b60405161033491906123a9565b60405180910390f35b61035760048036038101906103529190612627565b610a18565b60405161036491906123dd565b60405180910390f35b610375610a38565b60405161038291906123dd565b60405180910390f35b610393610a5c565b6040516103a091906123dd565b60405180910390f35b6103c360048036038101906103be919061253e565b610a80565b005b6103df60048036038101906103da9190612654565b610b9a565b005b6103e9610bbc565b6040516103f691906126b0565b60405180910390f35b61041960048036038101906104149190612654565b610bc5565b005b6104356004803603810190610430919061253e565b610c40565b60405161044291906123a9565b60405180910390f35b610453610d17565b005b61046f600480360381019061046a919061253e565b610d54565b005b61048b600480360381019061048691906126cb565b610d95565b005b610495610ddc565b6040516104a291906123dd565b60405180910390f35b6104b3610e00565b6040516104c091906123a9565b60405180910390f35b6104e360048036038101906104de91906126f8565b610e17565b6040516104f0919061258d565b60405180910390f35b610513600480360381019061050e919061253e565b610e5f565b005b61051d610efb565b005b610539600480360381019061053491906126f8565b610f38565b005b610555600480360381019061055091906126f8565b611001565b005b610571600480360381019061056c9190612654565b6110ca565b60405161057e91906123a9565b60405180910390f35b61058f611135565b60405161059c9190612488565b60405180910390f35b6105ad6111c7565b6040516105ba91906123dd565b60405180910390f35b6105dd60048036038101906105d8919061253e565b6111ce565b6040516105ea91906123a9565b60405180910390f35b61060d6004803603810190610608919061253e565b611256565b60405161061a91906123a9565b60405180910390f35b61063d6004803603810190610638919061253e565b61130c565b005b610659600480360381019061065491906125a8565b6114a8565b005b610675600480360381019061067091906126f8565b6114eb565b604051610682919061258d565b60405180910390f35b610693611534565b6040516106a091906123dd565b60405180910390f35b6106c360048036038101906106be9190612654565b611558565b005b6106df60048036038101906106da9190612725565b61157a565b6040516106ec919061258d565b60405180910390f35b6106fd611601565b60405161070a91906123dd565b60405180910390f35b61072d600480360381019061072891906126f8565b611625565b60405161073a91906123a9565b60405180910390f35b60007f7965db0b000000000000000000000000000000000000000000000000000000007bffffffffffffffffffffffffffffffffffffffffffffffffffffffff1916827bffffffffffffffffffffffffffffffffffffffffffffffffffffffff191614806107b657506107b58261167b565b5b9050919050565b7f92de27771f92d6942691d73358b3a4673e4880de8356f8f2cf452be87e02d36381565b6060600380546107f090612794565b80601f016020809104026020016040519081016040528092919081815260200182805461081c90612794565b80156108695780601f1061083e57610100808354040283529160200191610869565b820191906000526020600020905b81548152906001019060200180831161084c57829003601f168201915b5050505050905090565b600061087d6116e5565b61088d610888611726565b611625565b6108cc576040517f08c379a00000000000000000000000000000000000000000000000000000000081526004016108c390612811565b60405180910390fd5b6108d733848461172e565b6001905092915050565b6000600254905090565b6108f36116e5565b7fe5ed70e23144309ce456cb48bf5e6d0d8e160f094a6d65ecf1d5b03cf292d8e661091d81611740565b610928833084611754565b6109323083611848565b505050565b60006109416116e5565b600061094d853361157a565b905082811015610992576040517f08c379a0000000000000000000000000000000000000000000000000000000008152600401610989906128a3565b60405180910390fd5b61099b85611625565b80156109ac57506109ab84611625565b5b6109eb576040517f08c379a00000000000000000000000000000000000000000000000000000000081526004016109e290612935565b60405180910390fd5b6109f6858585611754565b610a0c85338584610a079190612984565b61172e565b60019150509392505050565b600060056000838152602001908152602001600020600101549050919050565b7f3c11d16cbaffd01df69ce1c404f6340ee057498f5f00246190ea54220576a84881565b7fe5ed70e23144309ce456cb48bf5e6d0d8e160f094a6d65ecf1d5b03cf292d8e681565b610a886116e5565b7f92de27771f92d6942691d73358b3a4673e4880de8356f8f2cf452be87e02d363610ab281611740565b81600860008573ffffffffffffffffffffffffffffffffffffffff1673ffffffffffffffffffffffffffffffffffffffff1681526020019081526020016000206000828254610b0191906129b8565b925050819055508273ffffffffffffffffffffffffffffffffffffffff167fd2dc74064ce9979876047afc7922931592038bce8a7fbaf28417799c138e4e4d600860008673ffffffffffffffffffffffffffffffffffffffff1673ffffffffffffffffffffffffffffffffffffffff16815260200190815260200160002054604051610b8d919061258d565b60405180910390a2505050565b610ba382610a18565b610bac81611740565b610bb683836118ca565b50505050565b60006008905090565b610bcd611726565b73ffffffffffffffffffffffffffffffffffffffff168173ffffffffffffffffffffffffffffffffffffffff1614610c31576040517f6697b23200000000000000000000000000000000000000000000000000000000815260040160405180910390fd5b610c3b82826119bc565b505050565b6000610c4a6116e5565b610c5a610c55611726565b611625565b610c99576040517f08c379a0000000000000000000000000000000000000000000000000000000008152600401610c9090612a38565b60405180910390fd5b6000610ca5338561157a565b9050610cb7610cb2611726565b611625565b610cf6576040517f08c379a0000000000000000000000000000000000000000000000000000000008152600401610ced90612a38565b60405180910390fd5b610d0c33858584610d0791906129b8565b61172e565b600191505092915050565b610d1f611aaf565b7f65d7a28e3265b37a6474929f336521b332c1681b933f6cb9f3376673440d862a610d4981611740565b610d51611aef565b50565b610d5c6116e5565b7f9f2df0fed2c77648de5860a4cc508cd0818c85b8b8a1ab4ceeef8d981c8956a6610d8681611740565b610d908383611b52565b505050565b7f3c11d16cbaffd01df69ce1c404f6340ee057498f5f00246190ea54220576a848610dbf81611740565b610dc76116e5565b610dd8610dd2611726565b83611848565b5050565b7f7def632d64a7259044c921303d544f945a340c8d4334adc0e0bd830a54deb52881565b6000600760009054906101000a900460ff16905090565b60008060008373ffffffffffffffffffffffffffffffffffffffff1673ffffffffffffffffffffffffffffffffffffffff168152602001908152602001600020549050919050565b610e676116e5565b80610e7983610e74611726565b61157a565b1015610eba576040517f08c379a0000000000000000000000000000000000000000000000000000000008152600401610eb190612aca565b60405180910390fd5b600081610ece84610ec9611726565b61157a565b610ed89190612984565b9050610eec83610ee6611726565b8361172e565b610ef68383611848565b505050565b610f036116e5565b7f65d7a28e3265b37a6474929f336521b332c1681b933f6cb9f3376673440d862a610f2d81611740565b610f35611bd4565b50565b7f7def632d64a7259044c921303d544f945a340c8d4334adc0e0bd830a54deb528610f6281611740565b6001600660008473ffffffffffffffffffffffffffffffffffffffff1673ffffffffffffffffffffffffffffffffffffffff16815260200190815260200160002060006101000a81548160ff0219169083151502179055508173ffffffffffffffffffffffffffffffffffffffff167f0211b3717a1e4e9d5dbd306d57337bd16341444ff1a3ca9d920060322b1aa64060405160405180910390a25050565b7f7def632d64a7259044c921303d544f945a340c8d4334adc0e0bd830a54deb52861102b81611740565b6000600660008473ffffffffffffffffffffffffffffffffffffffff1673ffffffffffffffffffffffffffffffffffffffff16815260200190815260200160002060006101000a81548160ff0219169083151502179055508173ffffffffffffffffffffffffffffffffffffffff167fa1505d69e69c406db19c16f3ec0bf25ae47eefb6ae68ab936d75df946fcd14cf60405160405180910390a25050565b60006005600084815260200190815260200160002060000160008373ffffffffffffffffffffffffffffffffffffffff1673ffffffffffffffffffffffffffffffffffffffff16815260200190815260200160002060009054906101000a900460ff16905092915050565b60606004805461114490612794565b80601f016020809104026020016040519081016040528092919081815260200182805461117090612794565b80156111bd5780601f10611192576101008083540402835291602001916111bd565b820191906000526020600020905b8154815290600101906020018083116111a057829003601f168201915b5050505050905090565b6000801b81565b60006111d86116e5565b60006111e4338561157a565b90506111f66111f1611726565b611625565b611235576040517f08c379a000000000000000000000000000000000000000000000000000000000815260040161122c90612a38565b60405180910390fd5b61124b338585846112469190612984565b61172e565b600191505092915050565b60006112606116e5565b61127061126b611726565b611625565b6112af576040517f08c379a00000000000000000000000000000000000000000000000000000000081526004016112a690612811565b60405180910390fd5b6112b883611625565b6112f7576040517f08c379a00000000000000000000000000000000000000000000000000000000081526004016112ee90612b5c565b60405180910390fd5b611302338484611754565b6001905092915050565b6113146116e5565b7f92de27771f92d6942691d73358b3a4673e4880de8356f8f2cf452be87e02d36361133e81611740565b81600860008573ffffffffffffffffffffffffffffffffffffffff1673ffffffffffffffffffffffffffffffffffffffff1681526020019081526020016000205410156113c0576040517f08c379a00000000000000000000000000000000000000000000000000000000081526004016113b790612bc8565b60405180910390fd5b81600860008573ffffffffffffffffffffffffffffffffffffffff1673ffffffffffffffffffffffffffffffffffffffff168152602001908152602001600020600082825461140f9190612984565b925050819055508273ffffffffffffffffffffffffffffffffffffffff167fd2dc74064ce9979876047afc7922931592038bce8a7fbaf28417799c138e4e4d600860008673ffffffffffffffffffffffffffffffffffffffff1673ffffffffffffffffffffffffffffffffffffffff1681526020019081526020016000205460405161149b919061258d565b60405180910390a2505050565b6114b06116e5565b7fe5ed70e23144309ce456cb48bf5e6d0d8e160f094a6d65ecf1d5b03cf292d8e66114da81611740565b6114e5848484611754565b50505050565b6000600860008373ffffffffffffffffffffffffffffffffffffffff1673ffffffffffffffffffffffffffffffffffffffff168152602001908152602001600020549050919050565b7f9f2df0fed2c77648de5860a4cc508cd0818c85b8b8a1ab4ceeef8d981c8956a681565b61156182610a18565b61156a81611740565b61157483836119bc565b50505050565b6000600160008473ffffffffffffffffffffffffffffffffffffffff1673ffffffffffffffffffffffffffffffffffffffff16815260200190815260200160002060008373ffffffffffffffffffffffffffffffffffffffff1673ffffffffffffffffffffffffffffffffffffffff16815260200190815260200160002054905092915050565b7f65d7a28e3265b37a6474929f336521b332c1681b933f6cb9f3376673440d862a81565b6000600660008373ffffffffffffffffffffffffffffffffffffffff1673ffffffffffffffffffffffffffffffffffffffff16815260200190815260200160002060009054906101000a900460ff169050919050565b60007f01ffc9a7000000000000000000000000000000000000000000000000000000007bffffffffffffffffffffffffffffffffffffffffffffffffffffffff1916827bffffffffffffffffffffffffffffffffffffffffffffffffffffffff1916149050919050565b6116ed610e00565b15611724576040517fd93c066500000000000000000000000000000000000000000000000000000000815260040160405180910390fd5b565b600033905090565b61173b8383836001611c37565b505050565b6117518161174c611726565b611e0e565b50565b600073ffffffffffffffffffffffffffffffffffffffff168373ffffffffffffffffffffffffffffffffffffffff16036117c65760006040517f96c6fd1e0000000000000000000000000000000000000000000000000000000081526004016117bd9190612bf7565b60405180910390fd5b600073ffffffffffffffffffffffffffffffffffffffff168273ffffffffffffffffffffffffffffffffffffffff16036118385760006040517fec442f0500000000000000000000000000000000000000000000000000000000815260040161182f9190612bf7565b60405180910390fd5b611843838383611e5f565b505050565b600073ffffffffffffffffffffffffffffffffffffffff168273ffffffffffffffffffffffffffffffffffffffff16036118ba5760006040517f96c6fd1e0000000000000000000000000000000000000000000000000000000081526004016118b19190612bf7565b60405180910390fd5b6118c682600083611e5f565b5050565b60006118d683836110ca565b6119b15760016005600085815260200190815260200160002060000160008473ffffffffffffffffffffffffffffffffffffffff1673ffffffffffffffffffffffffffffffffffffffff16815260200190815260200160002060006101000a81548160ff02191690831515021790555061194e611726565b73ffffffffffffffffffffffffffffffffffffffff168273ffffffffffffffffffffffffffffffffffffffff16847f2f8788117e7eff1d82e926ec794901d17c78024a50270940304540a733656f0d60405160405180910390a4600190506119b6565b600090505b92915050565b60006119c883836110ca565b15611aa45760006005600085815260200190815260200160002060000160008473ffffffffffffffffffffffffffffffffffffffff1673ffffffffffffffffffffffffffffffffffffffff16815260200190815260200160002060006101000a81548160ff021916908315150217905550611a41611726565b73ffffffffffffffffffffffffffffffffffffffff168273ffffffffffffffffffffffffffffffffffffffff16847ff6391f5c32d9c69d2a47ea670b442974b53935d1edc7fd64eb21e047a839171b60405160405180910390a460019050611aa9565b600090505b92915050565b611ab7610e00565b611aed576040517f8dfc202b00000000000000000000000000000000000000000000000000000000815260040160405180910390fd5b565b611af7611aaf565b6000600760006101000a81548160ff0219169083151502179055507f5db9ee0a495bf2e6ff9c91a7834c1ba4fdd244a5e8aa4e537bd38aeae4b073aa611b3b611726565b604051611b489190612bf7565b60405180910390a1565b600073ffffffffffffffffffffffffffffffffffffffff168273ffffffffffffffffffffffffffffffffffffffff1603611bc45760006040517fec442f05000000000000000000000000000000000000000000000000000000008152600401611bbb9190612bf7565b60405180910390fd5b611bd060008383611e5f565b5050565b611bdc6116e5565b6001600760006101000a81548160ff0219169083151502179055507f62e78cea01bee320cd4e420270b5ea74000d11b0c9f74754ebdbfc544b05a258611c20611726565b604051611c2d9190612bf7565b60405180910390a1565b600073ffffffffffffffffffffffffffffffffffffffff168473ffffffffffffffffffffffffffffffffffffffff1603611ca95760006040517fe602df05000000000000000000000000000000000000000000000000000000008152600401611ca09190612bf7565b60405180910390fd5b600073ffffffffffffffffffffffffffffffffffffffff168373ffffffffffffffffffffffffffffffffffffffff1603611d1b5760006040517f94280d62000000000000000000000000000000000000000000000000000000008152600401611d129190612bf7565b60405180910390fd5b81600160008673ffffffffffffffffffffffffffffffffffffffff1673ffffffffffffffffffffffffffffffffffffffff16815260200190815260200160002060008573ffffffffffffffffffffffffffffffffffffffff1673ffffffffffffffffffffffffffffffffffffffff168152602001908152602001600020819055508015611e08578273ffffffffffffffffffffffffffffffffffffffff168473ffffffffffffffffffffffffffffffffffffffff167f8c5be1e5ebec7d5bd14f71427d1e84f3dd0314c0f7b2291e5b200ac8c7c3b92584604051611dff919061258d565b60405180910390a35b50505050565b611e1882826110ca565b611e5b5780826040517fe2517d3f000000000000000000000000000000000000000000000000000000008152600401611e52929190612c12565b60405180910390fd5b5050565b611e676116e5565b8281600073ffffffffffffffffffffffffffffffffffffffff168273ffffffffffffffffffffffffffffffffffffffff1614611efc5780611ea7836114eb565b611eb084610e17565b611eba9190612984565b1015611efb576040517f08c379a0000000000000000000000000000000000000000000000000000000008152600401611ef290612cad565b60405180910390fd5b5b8484600073ffffffffffffffffffffffffffffffffffffffff168273ffffffffffffffffffffffffffffffffffffffff1614158015611f685750600073ffffffffffffffffffffffffffffffffffffffff168173ffffffffffffffffffffffffffffffffffffffff1614155b15611fcb57611f7682611625565b8015611f875750611f8681611625565b5b611fc6576040517f08c379a0000000000000000000000000000000000000000000000000000000008152600401611fbd90612d19565b60405180910390fd5b6120cb565b600073ffffffffffffffffffffffffffffffffffffffff168273ffffffffffffffffffffffffffffffffffffffff161461204c5761200882611625565b612047576040517f08c379a000000000000000000000000000000000000000000000000000000000815260040161203e90612d19565b60405180910390fd5b6120ca565b600073ffffffffffffffffffffffffffffffffffffffff168173ffffffffffffffffffffffffffffffffffffffff16146120c95761208981611625565b6120c8576040517f08c379a00000000000000000000000000000000000000000000000000000000081526004016120bf90612d19565b60405180910390fd5b5b5b5b6120d68787876120df565b50505050505050565b600073ffffffffffffffffffffffffffffffffffffffff168373ffffffffffffffffffffffffffffffffffffffff160361213157806002600082825461212591906129b8565b92505081905550612204565b60008060008573ffffffffffffffffffffffffffffffffffffffff1673ffffffffffffffffffffffffffffffffffffffff168152602001908152602001600020549050818110156121bd578381836040517fe450d38c0000000000000000000000000000000000000000000000000000000081526004016121b493929190612d39565b60405180910390fd5b8181036000808673ffffffffffffffffffffffffffffffffffffffff1673ffffffffffffffffffffffffffffffffffffffff16815260200190815260200160002081905550505b600073ffffffffffffffffffffffffffffffffffffffff168273ffffffffffffffffffffffffffffffffffffffff160361224d578060026000828254039250508190555061229a565b806000808473ffffffffffffffffffffffffffffffffffffffff1673ffffffffffffffffffffffffffffffffffffffff168152602001908152602001600020600082825401925050819055505b8173ffffffffffffffffffffffffffffffffffffffff168373ffffffffffffffffffffffffffffffffffffffff167fddf252ad1be2c89b69c2b068fc378daa952ba7f163c4a11628f55a4df523b3ef836040516122f7919061258d565b60405180910390a3505050565b600080fd5b60007fffffffff0000000000000000000000000000000000000000000000000000000082169050919050565b61233e81612309565b811461234957600080fd5b50565b60008135905061235b81612335565b92915050565b60006020828403121561237757612376612304565b5b60006123858482850161234c565b91505092915050565b60008115159050919050565b6123a38161238e565b82525050565b60006020820190506123be600083018461239a565b92915050565b6000819050919050565b6123d7816123c4565b82525050565b60006020820190506123f260008301846123ce565b92915050565b600081519050919050565b600082825260208201905092915050565b60005b83811015612432578082015181840152602081019050612417565b60008484015250505050565b6000601f19601f8301169050919050565b600061245a826123f8565b6124648185612403565b9350612474818560208601612414565b61247d8161243e565b840191505092915050565b600060208201905081810360008301526124a2818461244f565b905092915050565b600073ffffffffffffffffffffffffffffffffffffffff82169050919050565b60006124d5826124aa565b9050919050565b6124e5816124ca565b81146124f057600080fd5b50565b600081359050612502816124dc565b92915050565b6000819050919050565b61251b81612508565b811461252657600080fd5b50565b60008135905061253881612512565b92915050565b6000806040838503121561255557612554612304565b5b6000612563858286016124f3565b925050602061257485828601612529565b9150509250929050565b61258781612508565b82525050565b60006020820190506125a2600083018461257e565b92915050565b6000806000606084860312156125c1576125c0612304565b5b60006125cf868287016124f3565b93505060206125e0868287016124f3565b92505060406125f186828701612529565b9150509250925092565b612604816123c4565b811461260f57600080fd5b50565b600081359050612621816125fb565b92915050565b60006020828403121561263d5761263c612304565b5b600061264b84828501612612565b91505092915050565b6000806040838503121561266b5761266a612304565b5b600061267985828601612612565b925050602061268a858286016124f3565b9150509250929050565b600060ff82169050919050565b6126aa81612694565b82525050565b60006020820190506126c560008301846126a1565b92915050565b6000602082840312156126e1576126e0612304565b5b60006126ef84828501612529565b91505092915050565b60006020828403121561270e5761270d612304565b5b600061271c848285016124f3565b91505092915050565b6000806040838503121561273c5761273b612304565b5b600061274a858286016124f3565b925050602061275b858286016124f3565b9150509250929050565b7f4e487b7100000000000000000000000000000000000000000000000000000000600052602260045260246000fd5b600060028204905060018216806127ac57607f821691505b6020821081036127bf576127be612765565b5b50919050565b7f53656e646572206163636f756e74206973206e6f7420617574686f72697a6564600082015250565b60006127fb602083612403565b9150612806826127c5565b602082019050919050565b6000602082019050818103600083015261282a816127ee565b9050919050565b7f45524332303a207472616e7366657220616d6f756e742065786365656473206160008201527f6c6c6f77616e6365000000000000000000000000000000000000000000000000602082015250565b600061288d602883612403565b915061289882612831565b604082019050919050565b600060208201905081810360008301526128bc81612880565b9050919050565b7f4569746865722066726f6d206f7220746f206163636f756e74206973206e6f7460008201527f20617574686f72697a6564000000000000000000000000000000000000000000602082015250565b600061291f602b83612403565b915061292a826128c3565b604082019050919050565b6000602082019050818103600083015261294e81612912565b9050919050565b7f4e487b7100000000000000000000000000000000000000000000000000000000600052601160045260246000fd5b600061298f82612508565b915061299a83612508565b92508282039050818111156129b2576129b1612955565b5b92915050565b60006129c382612508565b91506129ce83612508565b92508282019050808211156129e6576129e5612955565b5b92915050565b7f4163636f756e74206973206e6f7420617574686f72697a656400000000000000600082015250565b6000612a22601983612403565b9150612a2d826129ec565b602082019050919050565b60006020820190508181036000830152612a5181612a15565b9050919050565b7f45524332303a206275726e20616d6f756e74206578636565647320616c6c6f7760008201527f616e636500000000000000000000000000000000000000000000000000000000602082015250565b6000612ab4602483612403565b9150612abf82612a58565b604082019050919050565b60006020820190508181036000830152612ae381612aa7565b9050919050565b7f5265636569766572206163636f756e74206973206e6f7420617574686f72697a60008201527f6564000000000000000000000000000000000000000000000000000000000000602082015250565b6000612b46602283612403565b9150612b5182612aea565b604082019050919050565b60006020820190508181036000830152612b7581612b39565b9050919050565b7f46726f7a656e2062616c616e6365206973206e6f7420656e6f75676800000000600082015250565b6000612bb2601c83612403565b9150612bbd82612b7c565b602082019050919050565b60006020820190508181036000830152612be181612ba5565b9050919050565b612bf1816124ca565b82525050565b6000602082019050612c0c6000830184612be8565b92915050565b6000604082019050612c276000830185612be8565b612c3460208301846123ce565b9392505050565b7f5265616c4469676974616c3a20696e73756666696369656e742062616c616e6360008201527f6500000000000000000000000000000000000000000000000000000000000000602082015250565b6000612c97602183612403565b9150612ca282612c3b565b604082019050919050565b60006020820190508181036000830152612cc681612c8a565b9050919050565b7f4163636573732064656e69656400000000000000000000000000000000000000600082015250565b6000612d03600d83612403565b9150612d0e82612ccd565b602082019050919050565b60006020820190508181036000830152612d3281612cf6565b9050919050565b6000606082019050612d4e6000830186612be8565b612d5b602083018561257e565b612d68604083018461257e565b94935050505056fea2646970667358221220ce7047bfe2a58441569ff911adcc31462c8817d235754a3cdecff709d538796364736f6c63430008140033",
  "linkReferences": {},
  "deployedLinkReferences": {}
}